:020000040800F2
:104000006806002089410008E14300088F4200084B
:10401000DF4300088B4200086744000800000000EE
:10402000000000000000000000000000E543000860
:104030008D42000800000000E3430008E743000849
:10404000A3410008A3410008A3410008A3410008C0
:10405000A3410008A3410008A3410008A3410008B0
:10406000A3410008A3410008A3410008A3410008A0
:10407000A3410008A3410008A3410008A341000890
:10408000A3410008A3410008A3410008A341000880
:10409000A3410008A3410008A3410008A341000870
:1040A000A3410008A3410008A3410008A341000860
:1040B000A3410008A3410008A3410008A341000850
:1040C000A3410008A3410008A3410008A341000840
:1040D000A3410008A3410008A3410008A341000830
:1040E000A3410008A3410008A341000800F002F822
:1040F00000F03AF80AA090E8000C82448344AAF148
:104100000107DA4501D100F02FF8AFF2090EBAE845
:104110000F0013F0010F18BFFB1A43F001031847FB
:10412000D8040000F8040000103A24BF78C878C111
:10413000FAD8520724BF30C830C144BF04680C60AD
:10414000704700000023002400250026103A28BFF5
:1041500078C1FBD8520728BF30C148BF0B607047F9
:104160001FB51FBD10B510BD00F058F81146FFF780
:10417000F7FF00F079F900F076F803B4FFF7F2FFEB
:1041800003BC00F07BF8000009488047094800475D
:10419000FEE7FEE7FEE7FEE7FEE7FEE7FEE7FEE7F7
:1041A000FEE7FEE704480549054A064B7047000054
:1041B00065440008ED400008680000206806002003
:1041C00068020020680200204FF0000200B513468C
:1041D00094469646203922BFA0E80C50A0E80C5027
:1041E000B1F12001BFF4F7AF090728BFA0E80C50D8
:1041F00048BF0CC05DF804EB890028BF40F8042BD1
:1042000008BF704748BF20F8022B11F0804F18BF3D
:1042100000F8012B7047704770477047754600F0F3
:1042200029F8AE4605006946534620F0070085464A
:1042300018B020B5FFF7B6FFBDE820404FF00006EC
:104240004FF000074FF000084FF0000B21F007017E
:10425000AC46ACE8C009ACE8C009ACE8C009ACE8C1
:10426000C0098D4670470446AFF300802046FFF733
:1042700084FF000000487047040000200149182016
:10428000ABBEFEE7260002007047FEE77047FEE780
:10429000044908B58A6902438A618969014000912D
:1042A00008BD000000100240F0B50A68C2F30F25F7
:1042B00095FAA5F2B2FA82F369E001229A402A4205
:1042C00064D0082B03D240F201129A4006E0A3F119
:1042D00008024FF00114944044F080624C68082CAE
:1042E0000BD10C69C668170A97FAA7F7B7FA87F7D0
:1042F00026EA1226BC402643C66092FAA2F700EBDB
:104300001264B7FA87F74FEA870C0F27266807FA77
:104310000CF7BE4392FAA2F7D1F804E0B7FA87F798
:10432000BF000EFA07FE46EA0E0626604F68012F10
:1043300001D0092F2AD192FAA2F7B7FA87F74FEAEC
:10434000870C032707FA0CF7BE4392FAA2F7B7FAD5
:1043500087F7D1F808E0BF000EFA07FE92FAA2FC38
:1043600046EA0E06BCFA8CFC4FEA8C0E4FF0040CA9
:1043700026600CFA0EFC92FAA2F2B2FA82F2CF6830
:10438000920026EA0C0697403E4326605B1C35FAF5
:1043900003F292D10020F0BD4FF47A71B0FBF1F13D
:1043A0004FF0E020491E416100218161052101613A
:1043B00070470000014908607047000000000020BD
:1043C00008B54FF0E0210A690092421C00D0401C61
:1043D0000A69D20300D5401E0028F9D108BDFEE7C6
:1043E000FEE77047704770471B4810B5016821F021
:1043F00007010160016811F0070FFBD11748016840
:1044000021F0F80141F080010160016841F00101F3
:1044100001600168C1F340010029FAD0416821F030
:10442000F0014160416821F4E0614160416821F49C
:1044300060514160416821F003014160416811F021
:104440000C0FFBD1064C2046FFF7A6FF2046BDE827
:104450001040FFF7AFBF00000020024000100240F4
:1044600000127A007047FEE786B00120FFF710FFC8
:104470005648C16941F08051C161C069544D00F096
:104480008050009028684FF6FF010840514940F4E1
:104490004070084328602868C0F30220C0F107017B
:1044A000042900D90421021D072A01D2002000E0BE
:1044B000C01E012606FA01F4641E4749844020010B
:1044C0004FF000084FF00F0981F8140D4348416880
:1044D00021F0E0614160416841F000714160FFF707
:1044E00083FF14216846FFF76FFE1020FFF7D0FE10
:1044F0000420FFF7CDFE3B4C394977032046676126
:10450000CDE900160221CDE902186946FFF7CCFE7D
:1045100000264FF4FA78E06827EA000100F4005022
:1045200041EA004020614046FFF74AFF761CF6B2A0
:10453000142EF0D167612D492B4808602C4C2D4971
:10454000231D91FAA1F6B6FA86F6B700186809FAA3
:1045500007F6B04391FAA1F6B6FA86F60122B60044
:10456000B24091FAA1F6B6FA86F6B70010430326D8
:10457000BE40B04391FAA1F6B6FA86F60222B60022
:10458000B24091FAA1F6B6FA86F6B70004261043B7
:10459000BE4091FAA1F1B1FA81F100228900B04345
:1045A0008A4010431860981460614FF47A70FFF7E6
:1045B00007FFBFF34F8F2868064900F4E060091D2C
:1045C00008432860BFF34F8F00BFFDE70010024093
:1045D0000CED00E00000FA050FE000E000000140F3
:1045E000200020040010014078563412FC4F0020B7
:1045F00000080140100010041846000800000020C8
:1046000004000000284100081C46000804000020A7
:0C46100064060000444100080024F4008F
:04000005080040EDC2
:00000001FF
