:020000040800F2
:104000000804002001410008C54200087141000871
:10401000C34200086D4100089543000800000000FD
:10402000000000000000000000000000C94200087D
:104030006F41000800000000C7420008CB420008A2
:104040001B4100081B4100081B4100081B410008E0
:104050001B4100081B4100081B4100081B410008D0
:104060001B4100081B4100081B4100081B410008C0
:104070001B4100081B4100081B4100081B410008B0
:104080001B4100081B4100081B4100081B410008A0
:104090001B4100081B4100081B4100081B41000890
:1040A0001B4100081B4100081B4100081B41000880
:1040B0001B4100081B4100081B4100081B41000870
:1040C0001B4100081B4100081B4100081B41000860
:1040D0001B4100081B4100081B4100081B41000850
:1040E0001B4100081B4100081B410008DFF80CD0F1
:1040F00000F02AF800480047B543000808040020F3
:104100000648804706480047FEE7FEE7FEE7FEE771
:10411000FEE7FEE7FEE7FEE7FEE7FEE74D430008A9
:10412000ED400008D2B201E000F8012B491EFBD29D
:1041300070470022F6E710B513460A4604461946B2
:10414000FFF7F0FF204610BD064C074D06E0E06883
:1041500040F0010394E8070098471034AC42F6D3CE
:10416000FFF7C8FF5444000874440008FEE7704796
:10417000FEE70000044908B58A6902438A6189693B
:104180000140009108BD000000100240F0B50A682F
:10419000C2F30F2595FAA5F2B2FA82F369E0012283
:1041A0009A402A4264D0082B03D240F201129A406E
:1041B00006E0A3F108024FF00114944044F080623D
:1041C00092FAA2F700EB1264B7FA87F74FEA870C6E
:1041D0000F27266807FA0CF7BE4392FAA2F7D1F828
:1041E00004E0B7FA87F7BF000EFA07FE46EA0E06AC
:1041F00026600E69C7684FEA122C9CFAACFCBCFA28
:104200008CFC27EA122706FA0CF63743C7604E6883
:10421000012E01D0092E2BD192FAA2F7B7FA87F717
:104220004FEA870C032707FA0CF72668D1F808E055
:10423000BE4392FAA2F7B7FA87F7BF000EFA07FE5D
:1042400092FAA2FC46EA0E06BCFA8CFC4FEA8C0EEF
:104250004FF0040C26600CFA0EFC92FAA2F2B2FAAD
:1042600082F2CF68920026EA0C0697403E43266011
:104270005B1C35FA03F292D10120F0BD4FF47A7144
:10428000B0FBF1F14FF0E020491E41610021816156
:104290000521016170470000014908607047000076
:1042A0000000002008B54FF0E0210A690092421C8E
:1042B00000D0401C0A69D20300D5401E0028F9D165
:1042C00008BDFEE770477047704770471C4810B53F
:1042D000016821F00701016000681A48016821F0B7
:1042E000F80141F080010160016841F001010160C5
:1042F0000168C1F340010029FAD0416821F0F001C2
:104300004160416821F4E0614160416821F46051FD
:104310004160416821F003014160416811F00C0FD8
:10432000FBD1094C2046FFF7A9FF4FF0E0210869B7
:1043300040F0040008612046BDE81040FFF7ACBF24
:10434000002002400010024000127A000D4801686F
:1043500041F00101016041680B4A11404160016870
:104360000A4A11400160016821F48021016041681E
:1043700021F4FE0141604FF41F0181600449C00334
:1043800008607047001002400000FFF8FFFFF6FED3
:1043900008ED00E0FEE702E008C8121F08C1002A8D
:1043A000FAD170477047002001E001C1121F002AB6
:1043B000FBD1704786B00120FFF7DCFE1F48C169C2
:1043C00041F08051C161C0691D4900F080500090EA
:1043D00008684FF6FF0210401A4A40F4407010433C
:1043E00008601948416821F0E0614160416841F08E
:1043F00000714160FFF76AFF14216846FFF799FEDC
:104400001020FFF7B7FE0420FFF7B4FE104C0F4951
:104410004FF4005220466261009101210191022176
:104420000291002103916946FFF7B0FEE06880F435
:104430000050E060FA20FFF735FFF7E70010024078
:104440000CED00E00000FA0500000140200020040F
:104450000010014074440008000000200400000027
:10446000964300087844000804000020040400007B
:08447000A643000800A24A0463
:0F448100112233445566778899AABBCCDDEEFF34
:0E449200112233445566778899AABBCCDDEE23
:0D44A300112233445566778899AABBCCDD01
:3344B300112233445566778899AABBCCDDEEFF0102030405060708090A0B0C0D0E0F101112131415161718192021222324252627282930FC
:04000005080040EDC2
:00000001FF