:020000040800F2
:100000005811002001010008DF0E0008E90A00086D
:10001000DD0E000807020008612A00080000000049
:100020000000000000000000000000005F18000851
:1000300009020008000000006312000861180008AF
:100040001B0100081B0100081B0100081B01000820
:100050001B0100081B0100081B0100081B01000810
:100060001B0100081B0100081B0100081B01000800
:100070001B0100081B0100081B0100081B010008F0
:100080001B0100081B0100081B0100081B010008E0
:10009000F92900081B0100081B0100081B010008CA
:1000A0001B0100081B0100081B0100081B010008C0
:1000B0001B0100081B0100081B0100081B010008B0
:1000C0001B0100081B0100081B0100081B010008A0
:1000D0001B0100081B0100081B0100081B01000890
:1000E0001B0100081B0100081B010008DFF80CD0F1
:1000F00000F04CF80048004751300008581100202B
:100100000648804706480047FEE7FEE7FEE7FEE7B1
:10011000FEE7FEE7FEE7FEE7FEE7FEE71919000847
:10012000ED000008202A04DB203A21FA02F0002129
:10013000704721FA02F3D040C2F1200291400843F7
:100140001946704740EA01039B0703D009E008C93C
:10015000121F08C0042AFAD203E011F8013B00F88C
:10016000013B521EF9D27047D2B201E000F8012BD8
:10017000491EFBD270470022F6E710B513460A4627
:1001800004461946FFF7F0FF204610BD064C074D08
:1001900006E0E06840F0010394E807009847103457
:1001A000AC42F6D3FFF7A6FF4431000864310008E3
:1001B00070B58C1810F8015B15F0070301D110F829
:1001C000013B2A1106D110F8012B03E010F8016B56
:1001D00001F8016B5B1EF9D12B0705D40023521ED9
:1001E0000DD401F8013BFAE710F8013BCB1A921C41
:1001F00003E013F8015B01F8015B521EF9D5A1423F
:10020000D8D3002070BDFEE7704770470649002034
:10021000C8610648016941F004010161016941F0CA
:100220004001016170470000380D002000200240AD
:10023000064A0021D16106490A6942F002020A61B8
:100240004861086940F0400008617047380D00209F
:1002500000200240044B0022DA61044A136943F093
:100260000103136101807047380D00200020024017
:1002700014480022C168CB06134904D5CA6942F06C
:100280000202CA611022C3685B0705D5CB6943F03F
:100290000103CB6142F00402C369DB0707D0CB69DD
:1002A00043F00403CB61C16921F00101C161A2F5F2
:1002B0008071013901D0C2607047C16921F001012C
:1002C000C161704700200240380D002070B505461E
:1002D00000F0E8F80646114C09E0681C07D025B18B
:1002E00000F0E0F8801BA84201D9032070BDE0684F
:1002F000C007F2D1E068800601D52020E060E06808
:10030000C00605D4E069C00702D1E068400703D504
:10031000FFF7AEFF012070BD002070BD002002403D
:10032000064810B54FF0FF31C16000220261C16084
:10033000C26000F0F7F8002010BD0000001002407D
:100340002DE9F047054626480F460126017E012982
:100350000FD00121814601762868DFF888804CF2B1
:100360005034022808D0A2462046FFF7AFFFA8B1BC
:1003700031E00220BDE8F0872046FFF7A7FF08BB69
:100380000120FFF743FF2046FFF7A0FFD8F8101029
:10039000064621F00401C8F810101CE04FF0FF30B1
:1003A0003860AC6811E02046FFF742FF5046FFF787
:1003B0008DFFD8F81010060021F00201C8F81010C7
:1003C00001D03C6007E004F58064D5E9020100EB50
:1003D0008120A042E7D8002189F818103046C9E7EB
:1003E000380D0020002002400348016941F08001DF
:1003F0000161002070470000002002402DE9F05FFD
:1004000007461C4888460024017E15461E460129E1
:1004100009D00121814601764CF2503A5046FFF74F
:1004200055FF18B122E00220BDE8F09F012F02D055
:10043000022F00D00427D346DFF83CA02201284633
:100440003146FFF76FFE81B208EB4400FFF702FF71
:100450005846FFF73BFFDAF8102022F00102CAF8F5
:10046000102018B9641CE4B2BC42E7D3002289F81A
:100470001820D9E7380D002000200240064900204E
:100480000A69120607D5054A4A60054A4A600969A1
:10049000090600D50120704700200240230167456E
:1004A000AB89EFCD01488068704700008C000020C8
:1004B0000248816802781144816070478C000020F6
:1004C000074810B5016841F010010160032000F0F9
:1004D00075F8002000F006F800F026F8002010BDA6
:1004E0000020024070B50D4D04464FF47A71287813
:1004F000B1FBF0F00A490968B1FBF0F000F0E0FA56
:1005000048B9102C07D200222146501E00F036F8C0
:1005100000206C6070BD012070BD00008C000020C8
:1005200098000020704700000C4808B5816941F030
:1005300001018161816901F001010091C16941F00E
:100540008051C161C06900F080500090044841684A
:1005500021F0E06141F00071416008BD00100240EF
:100560000000014000F01F0201219140400980007D
:1005700000F1E020C0F8001170470000F0B40E4B0D
:100580001B680C46C3F30223C3F10705042D00D9F1
:100590000425191D072901D2002300E0DB1E0126D6
:1005A00006FA05F1491E214099409E40761E1640EC
:1005B0003143F0BC00F094BC0CED00E0064900F0C3
:1005C000070208684FF6FF03184040EA0220034A7A
:1005D00010430860704700000CED00E00000FA05D1
:1005E00010B50C0605D501F07F0100EB4110283055
:1005F00003E000EB411000F50A7099B232B101221C
:100600008272C180190C0181002010BD002282720B
:100610008180F9E7704700EB4112D0F85C04D26B9F
:1006200001F01CBB00EB4112D0F85C04D2F83C2274
:1006300001F069BB10B504460A460B0601F07F00C5
:1006400004EB401101D5283101E001F50A71087071
:10065000D009487094F82804012809D0012084F8B2
:100660002804206801F0E0FF002084F8280410BD71
:10067000022010BD70B50A460446090602F07F004C
:1006800003D504EB4011283103E004EB421101F5DE
:100690000A7100258D700870D009487094F82804FC
:1006A000012809D0012084F82804206802F06AF8A3
:1006B00084F82854002070BD022070BD10B5044697
:1006C00090F8280401280AD0012084F8280408069C
:1006D00007D501F07F01206802F08CF904E00220C8
:1006E00010BD206802F084F9002084F8280410BDB1
:1006F00001F00F0100EB4110B0F8440280B27047E6
:1007000070B504460D460E0601F07F0004EB401163
:1007100001D5283101E001F50A710870E809487037
:100720000A61CB7094F82804012809D0012084F8CC
:100730002804206801F048FE002084F8280470BDD9
:10074000022070BD70B50C4601F07F0500EB45112D
:10075000C1E98F230022C1F8442281F8292281F8BF
:10076000285201F50A716206006802F065F800205F
:1007700070BD70B50D460446090605F07F0003D52F
:1007800004EB4011283103E004EB451101F50A7137
:1007900001228A700870E809487094F8280401283A
:1007A00007D084F82824206802F021F8680602D0D7
:1007B00006E0022070BD04F22C41206801F0E0FF49
:1007C000002084F8280470BD70B50C4601F07F0548
:1007D00000EB4511C1E90F2300224A64012281F890
:1007E000292001F8285F6206006802F025F8002041
:1007F00070BD10B50446006802F004F9000402D58B
:10080000204600F07DFB206802F0FCF840050CD586
:10081000206830F8441F21F480610180204600F0F8
:10082000EDF80021204600F004F9206802F0EAF813
:10083000400405D5206830F8441F21F48041018030
:10084000206802F0DFF8800405D5206830F8441FE6
:1008500021F400510180206802F0D4F8C00414D5BE
:10086000206830F8401F21F004010180206830F832
:10087000401F21F008010180204600F0D2F82068D6
:1008800030F8441F21F480510180206802F0BAF84A
:1008900000051AD5206830F8401F41F0080101809A
:1008A000206830F8441F21F400610180206830F88E
:1008B000401F41F004010180206802F0A3F8C0430A
:1008C000C00402D5204600F0E9F8206802F09AF84A
:1008D000800508D5206830F8441F21F4007101809C
:1008E000204600F0A2F8206802F08CF8C00505D57B
:1008F000206830F8441F21F48071018010BD000091
:100900002DE9F04186B004004FF0000504D094F8C2
:100910002904002620B108E0012006B0BDE8F081DE
:1009200084F82864204600F04BF8032084F829045A
:10093000206801F01EFF04F1100114228846684669
:10094000FFF700FC94E80F0001F06CFE0021206826
:1009500002F06BF85FF0010704EB451080F8297096
:1009600000F8285F8581C670066146616D1C86614E
:100970000F2DF1D35FF0000004EB401181F82962E4
:1009800081F82802888681F82B62C1F83862C1F8A4
:100990003C62401CC1F840620F28EDD3142241464E
:1009A0006846FFF7CFFB94E80F0001F0D3FE84F810
:1009B000246084F82974206801F0CAFE0020ACE7A6
:1009C00008B500680B49884212D10B48C16941F44F
:1009D0000001C161C069002200F4000000901146CE
:1009E0001420FFF7CBFDBDE808401420FFF7BABD87
:1009F00008BD0000005C00400010024070B50446D5
:100A000080680125022801D0FFF7FFFB2946D4F8B2
:100A10005C0401F047FAD4F85C04BDE8704001F0D2
:100A200010BAD0F85C0401F02BBAD0F85C0401F0E5
:100A30002DBA10B5044690F8280401280BD00120E7
:100A400084F8280484F82410206801F0F0FF0020C6
:100A500084F8280410BD022010BDD0F85C2400F2F8
:100A60002C41104601F02ABA10B5044690F828042B
:100A7000012810D0012084F8280401462046FFF701
:100A8000C9FD206801F062FE206801F0AAFF002085
:100A900084F8280410BD022010BD000010B50446E3
:100AA000D0F85C0401F049FAA069002804D003489A
:100AB000016841F00601016010BD000010ED00E08A
:100AC00010B5401EB0F1807F01D3012010BD4FF062
:100AD000E02460610F21601700F002FA0020A0619D
:100AE00007202061002010BDFEE70000F0B50023C4
:100AF0000A24302537261F4611E000BFB4EB107FD3
:100B000002D905EB107C01E006EB107C01F813C064
:100B100001EB430C00015B1C8CF80170DBB29342CB
:100B2000ECD3F0BDF0B50A68C2F30F2595FAA5F233
:100B3000B2FA82F369E001229A402A4264D0082B7B
:100B400003D240F201129A4006E0A3F108024FF0EE
:100B50000114944044F0806292FAA2F700EB126410
:100B6000B7FA87F74FEA870C0F27266807FA0CF7C2
:100B7000BE4392FAA2F7D1F804E0B7FA87F7BF00B4
:100B80000EFA07FE46EA0E0626600E69C7684FEAAF
:100B9000122C9CFAACFCBCFA8CFC27EA122706FA51
:100BA0000CF63743C7604E68012E01D0092E2BD1B9
:100BB00092FAA2F7B7FA87F74FEA870C032707FAEA
:100BC0000CF72668D1F808E0BE4392FAA2F7B7FA0C
:100BD00087F7BF000EFA07FE92FAA2FC46EA0E065D
:100BE000BCFA8CFC4FEA8C0E4FF0040C26600CFA19
:100BF0000EFC92FAA2F2B2FA82F2CF68920026EAD2
:100C00000C0697403E4326605B1C35FA03F292D1F6
:100C10000120F0BD4FF47A71B0FBF1F14FF0E0200C
:100C2000491E416100218161052101617047000079
:100C300001490860704700009800002070B5D0F8A6
:100C40001842054694F8180240B9D4F8140228B1A5
:100C5000607A18B90121284601F05DF98121284602
:100C600001F059F9607A022808D104F50372284688
:100C7000BDE870401F23012101F0DAB870BD00000B
:100C800070B5D0F8184206460121D4F81002C4F815
:100C90003002D4F81402C4F83402304601F071F87E
:100CA0001F280DD12849D4F80C02884208D194F8A5
:100CB0001912012904D894F81A0208B1102809D988
:100CC00094F8191220230522304600F00CFD022072
:100CD000607209E004F21B22304600F0D5FA0028C9
:100CE000207A08DA052804D03046BDE87040FFF7C6
:100CF000A5BF012121E0022824D0012822D0032809
:100D000020D06189C9B1D6F81852304604F10C02DE
:100D1000D5F814328B4200D219468BB2D5F8341272
:100D2000C91AC5F83412002185F838120421297235
:100D3000BDE87040812101F009B93046BDE870403E
:100D400000F084B870BD00005553424310B5D0F890
:100D50001842627A022A08D009060BD5012A09D066
:100D6000BDE81040012100F071B8812101F0D3F8F5
:100D70000020607210BD10B5D0F818220446107A19
:100D8000022805D0032801D0042810D1002109E051
:100D900092F81912204602F21B2200F075FA002880
:100DA00005DA01212046BDE8104000F04FB810BD23
:100DB00010B5D0F818220446107A80B1012813D15A
:100DC00092F81912204602F21B2200F05DFA002868
:100DD0000ADA2046BDE81040012100F037B820466D
:100DE000BDE81040FFF74CBF10BDD0F8180200213D
:100DF0000172704770B5D0F8184200210546217283
:100E0000617284F85D1284F85C12D0F81C020168EB
:100E1000002088470121284600F0AAFF81212846AA
:100E200000F0A6FF04F503722846BDE870401F23BA
:100E3000012100F0FDBFD0F818220021117201211C
:100E400051721F2302F5037200F0F2BF70B5D0F8A3
:100E5000184205460B48C4F82C0284F838120020CA
:100E600020720D2304F50B728121284601F06EF8E3
:100E700004F503722846BDE870401F23012100F0ED
:100E8000D7BF00005553425310B500220F491048F8
:100E900000F0BDFE08B1FFF7B8F90E490C4801F0AB
:100EA0003AF908B1FFF7B1F90B49094801F0B9F86F
:100EB00008B1FFF7AAF9064801F07AF9002803D033
:100EC000BDE81040FFF7A1B910BD000008000020E8
:100ED00044010020A000002058000020FEE77047D9
:100EE0000907090E002806DA00F00F0000F1E020E3
:100EF00080F8141D704700F1E02080F8001470475E
:100F00002DE9FC5F4FF000080446ADF80480ADF811
:100F1000008048F60F7B4FF002094FF4806692E1A3
:100F2000BDF8041011F00F072BD030F82710ADF8E2
:100F30000010BDF80010090478D530F8272040F6DD
:100F40008F710A4020F8272004EB471595F83202EC
:100F500005F50A750028206869D0297830F8212025
:100F600052047DD5B0F8503009EBC101194406EBAD
:100F70004101415AC1F309015FEA010A71D0EA88CF
:100F8000D0E0BDF80410C9062AD4018801EA0B019B
:100F90000180206804F12805B0F850202B7809EB77
:100FA000C301114406EB4101405AC0F309006064DB
:100FB000E16B0844E06300212046FFF72CFB94F826
:100FC00024000028ABD0A8690028A8D194F82400F8
:100FD000216840F08000A1F84C0084F8248032E1C0
:100FE000018804F50A75ADF80010BDF80010090578
:100FF0001ED5B0F850302978062202EBC101194401
:1010000006EB4101405A04F22C41C0F30903EB61A5
:10101000AA88206801F0FAFC2068018840F68F72E7
:10102000114001802046FFF718FD0CE1A0E055E0DB
:10103000BDF800100904D2D5028840F68F710A402D
:1010400002802068B0F850302978062202EBC101F6
:10105000194406EB4101405A83059B0DEB6101E009
:1010600051E063E008D0AA886969206801F0CEFCED
:10107000E96968690844686100212046FFF7D2FAEF
:101080002068B0F85010891D06EB41010144286921
:101090003E280CD9C0F34F12C00601D1521E92B2A5
:1010A0004FF6FF7000EA822040F4004009E0C0F3F0
:1010B0004F02C00701D0521C92B24FF6FF7000EAF7
:1010C00082200860216808884BF68F72104080F4F7
:1010D000405048F2800210430880B4E0B0F850203D
:1010E0002B78062101EBC301114406EB4101415A63
:1010F000C1F309015FEA010A24D0AA88534669694D
:1011000001F084FC1EE0B0F85020062303EBC1017F
:10111000114406EB4101415AC1F309015FEA010A9A
:1011200004D02A895346696901F070FC2978206847
:1011300030F8213048F68F72134048F2C002134352
:1011400020F82130E96901EB0A00E861696901EBE7
:101150000A026A61AB6913B12869504504D929783C
:101160002046FFF75FFA03E029782046FFF7EAFA06
:10117000BDF80000000666D5206804EB471530F87E
:10118000271001EA0B0120F8271095F832002835C6
:101190000028206812D0297830F82120B0F850308B
:1011A00052061ED509EBC101194406EB4101405A14
:1011B00083059B0DEB6124D0EA881EE0B0F8503027
:1011C0002A7809EBC201194406EB4101405A830514
:1011D0009B0DEB6121D0AA886969206801F02DFC84
:1011E0001BE0062202EBC101194406EB4101405A03
:1011F00083059B0DEB6104D02A896969206801F0A1
:101200001CFC2978206830F8212048F68F731A409A
:101210004CF280031A4320F821202068B0F85020B7
:101220002B7809EBC301114406EB4101405AC0F38E
:101230000900E86169690A186A612978AB69204682
:1012400063B1FFF7C1FA2068B0F84410ADF804109C
:1012500009043FF565AE0020BDE8FC9FFFF7DBF910
:10126000F1E7704710B5D0F818421A44D4F860324C
:101270009A4206D92123052200F035FA4FF0FF30BB
:1012800010BD002010BD00002DE9F04113780024AE
:101290004FF0FF35232B73D00DDC1A2B71D005DCFA
:1012A000BBB1032B36D0122B11D160E01B2B01D028
:1012B0001E2B0CD181E02A2B73D004DC252B71D09E
:1012C000282B04D1A1E02F2B6DD05A2B6CD02023DA
:1012D000A9E0D0F8187206468846D7F8140240B143
:1012E00097F81912202305224FEA060000F0FBF9B7
:1012F000A4E0D6F81C0281684046884740B13A23F2
:1013000002224146304600F0EEF90520387295E0A1
:101310007C8197E0D0F818120023C8185B1CDBB260
:101320000473122BF9D3702008730C20C87491F841
:101330005C3291F85D02834212D001EBC3005B1C6A
:1013400090F83C528D7390F841520D7690F840021F
:101350004876D8B281F85C02042801D181F85C4259
:1013600012204881107912286CD848816AE055789B
:10137000D0F81832ED0705D007203349588114E022
:101380003BE01EE0D0F81C0201EBC1011279C069FC
:1013900000EB81010879401D824200D81046588137
:1013A00008E036E02DE038E019E0401E80B21D185C
:1013B0000A5C2A730028F8D144E0D0F8180244816E
:1013C00040E0D0F818120820204A4881401E00044E
:1013D000000C01EB0005135C2B73F7D132E0D0F861
:1013E000180208211A4A4181491E0904090C00EB20
:1013F0000105535C2B73F7D124E0BDE8F04100F008
:101400003BB9BDE8F04100F00CB9BDE8F04100F097
:10141000B3B8BDE8F04100F081B95278D0F8186255
:10142000920702D52423052260E7B6F8682293B21A
:10143000D6F86422FFF716FF002802DA2846BDE836
:10144000F08174812046FAE72A3100083131000822
:10145000393100082DE9F041D0F8184206464FF422
:101460000070D4F868520F46854200D30546B4F8A0
:101470005E02B5FBF0F18BB2D4F86412B1FBF0F26E
:10148000D6F81C0204F10C018846D0F810C038468A
:10149000E047002809DA112304223946304600F0DB
:1014A00022F94FF0FF30BDE8F081ABB24246812116
:1014B000304600F04BFDD4F864022844C4F86402BE
:1014C000D4F86802401BC4F86802D4F83412A1EBC7
:1014D0000501C4F8341201D1032020720020E2E794
:1014E0002DE9F047D0F818424FF400768846D4F83A
:1014F00068520746B54200D33546B4F85E02B5FBE4
:10150000F0F18BB2D4F86412B1FBF0F2D7F81C0200
:1015100004F10C018946D0F814C04046E047002889
:1015200009DA032304224146384600F0DCF84FF084
:10153000FF30BDE8F087D4F864022844C4F86402A0
:10154000D4F86802401BC4F86802D4F83412A1EB46
:101550000501C4F834120AD0B04200D3304683B239
:101560004A460121384600F063FC0020E1E70021F3
:101570003846FFF76BFCF8E72DE9F041D0F8184248
:1015800005461746207A8846F0BB94F818024FF0BB
:10159000FF36000635D5D5F81C02816840468847DD
:1015A00030B13A2302224146284600F09CF813E06D
:1015B000D7F80200414600BA20F0FF0278790243D2
:1015C000C4F86422B7F8070043BA2846C4F8683262
:1015D000FFF748FE002802DA3046BDE8F08102201D
:1015E0002072B4F85E12D4F864024843C4F864026E
:1015F000D4F868024843C4F86802D4F8141281424F
:1016000006D094F8191200E002E020230522CBE76F
:101610004FF40070608141462846BDE8F041FFF775
:1016200019BF70B505460E46D5E9864004F25E2224
:101630004368911C3046984740B13A230222314614
:10164000284600F050F84FF0FF3070BDD4F860022B
:10165000401E010E2173010C6173010AA173E07336
:10166000002020746074B4F85E02010AA174E07472
:1016700008206081002070BD2DE9FC410546D0F8AE
:10168000184200200F4606462118401C80B20E73F7
:101690000C28F9D3D5F81C026A4601A943683846DC
:1016A000984748B13A2302223946284600F01BF8F1
:1016B0004FF0FF30BDE8FC810820E0730198401E28
:1016C000010E2174010C6174010AA174E0740220FE
:1016D00020756675BDF80000010AA175E0750C2043
:1016E00060810020E6E7D0F8180290F85D1200EB68
:1016F000C10181F83C2290F85D22190200EBC20280
:10170000C2F8401290F85D12491CC9B280F85D120F
:10171000042902D1002180F85D1270472DE9F041C3
:10172000D0F8184205461746207A884620B1284648
:10173000BDE8F041FFF7D4BE94F818024FF0FF3631
:1017400000063CD4D5F81C0281684046884728B181
:101750003A230AE02846FFF7C6FF1DE0D5F81C0231
:10176000C1684046884718B1272302224146F1E765
:10177000D7F80200414600BA20F0FF027879024310
:10178000C4F86422B7F8070043BA2846C4F86832A0
:10179000FFF768FD002802DA3046BDE8F081B4F8B2
:1017A0005E02D4F864124143C4F86412D4F868129B
:1017B0004143C4F86812D4F81402884204D02023AC
:1017C00094F819120522C5E70120207240028142D7
:1017D00000D301468BB204F10C020121284600F02F
:1017E00027FB0020D9E74FF4703008604FF40070F9
:1017F00010800020704700207047002070470020B4
:101800007047002070472DE9F04154024FF40076F4
:1018100098460D46002707E02146284601F03CFA8D
:10182000A419354407F101074745F5D30020BDE869
:10183000F0812DE9F04154024FF4007698460D46B0
:10184000002707E02146284601F0A0FAA4193544F4
:1018500007F101074745F5D30020BDE8F081704747
:10186000FEF726BE70B52948016821F0070141F056
:10187000010101600068264C206820F0F80040F06B
:1018800080002060206840F0010020602068C0F3E4
:1018900040000028FAD0606820F47C1040F420104A
:1018A0006060206840F0807020602068C0F3406075
:1018B0000028FAD0606820F0F0006060606820F4D2
:1018C000E06040F480606060606820F460506060B8
:1018D000606820F0030040F002006060606800F083
:1018E0000C000828FAD10B4D2846FFF793F94FF06A
:1018F000E021086940F0040008612846FFF798F9E4
:10190000606840F48000606070BD0000002002400C
:1019100000100240006CDC020D48016841F001013A
:10192000016041680B4A1140416001680A4A114058
:101930000160016821F480210160416821F4FE0109
:1019400041604FF41F0181600449C0030860704783
:10195000001002400000FFF8FFFFF6FE08ED00E077
:1019600010B5D0F8142252689047002010BD1346DD
:1019700010B50A46002100F05BFA002010BD1346A6
:1019800010B50A46002100F0E1FA002010BD10B5A4
:101990000446802100F0BFFA2046BDE81040002137
:1019A00000F0B9BA10B505210023C0F8F4111A46A9
:1019B000194600F03DFA002010BD10B502238261E7
:1019C000C0F8F431C26113460A46002100F0BEFAA5
:1019D000002010BD10B504210023C0F8F4111A46F0
:1019E000194600F0B3FA002010BD000010B50A46F9
:1019F000024903A000F0DCF8004810BD380A0020BE
:101A00004D534320436F6E666967000012200880C3
:101A1000004870472800002010B50A46024903A07C
:101A200000F0C6F8004810BD380A00204D5343208E
:101A3000496E746572666163650000000420088069
:101A4000004870472400002010B50A46024903A050
:101A500000F0AEF8004810BD380A002053544D691C
:101A600063726F656C656374726F6E696373000097
:101A700010B50A46024903A000F09AF8004810BDCC
:101A8000380A002053544D3332204D617373205374
:101A9000746F72616765000010B51A2008800A48EB
:101AA0000168001D0468001D0068081809D008229C
:101AB0000649FFF71BF80549042210312046FFF7BD
:101AC00015F80248801E10BDE8F7FF1F3E000020F9
:101AD000F8B5044648880D46010A08294BD2DFE8CC
:101AE00001F04A0409174A4A4048D4F81012207CF1
:101AF0000A6832E0207C02260028D4F8140205D0BF
:101B0000C16A684688470146467041E0816AF8E745
:101B1000C0B206282FD2DFE800F003080D12171C10
:101B2000D4F81012207C4A6817E0D4F81012207CF8
:101B30008A6812E0D4F81012207CCA680DE0D4F84C
:101B40001012207C0A6908E0D4F81012207C4A693F
:101B500003E0D4F81012207C8A6969469047014658
:101B600016E0207C38B9D4F81402416B68468847E7
:101B7000F5E7207C20B129462046FFF708FFF8BD95
:101B8000D4F81402016B6846884701460720487064
:101B9000BDF800000028F2D0EA88002AEFD0824287
:101BA00000D90246ADF800202046FFF706FFF8BD39
:101BB00070B5002300281DD00446002502E06D1CEE
:101BC000EDB2641C2678002EF9D1022404EB450402
:101BD0001480CC545B1C0322CA5400245B1C06E016
:101BE000CA545B1CDAB28C54521CD3B2401C02782B
:101BF000002AF5D170BD01004FF0000004D001298A
:101C000001D0022901D0022070470120704710B591
:101C100080B1D0F8143213B10023C0F8143209B1E6
:101C2000C0F81012012180F8FC11027000F0AEF82B
:101C3000002010BD022010BD10B5D0F82002FEF724
:101C400019FDBDE81040FFF7D6BF10B5D0F820024F
:101C5000FEF7F0FCBDE81040FFF7CDBF2DE9F041E5
:101C60001746044641B1D4F8140242698AB394F885
:101C7000FC01032842D043E0D4F8F411002504F11C
:101C80001400022933D1D0E902639E4207D9F31A26
:101C900083609AB239462046FFF771FE12E0406831
:101CA000B0FBF3F103FB1101A1B9984212D3D4F8B0
:101CB000F81188420ED2002211462046FFF75FFE3F
:101CC000C4F8F85100231A461946204600F0B0F82F
:101CD0000DE012E0D4F81402C16829B194F8FC01B7
:101CE000032801D1204688472046FFF75BFE94F881
:101CF0000002012804D184F8005201E020469047F8
:101D00000020BDE8F08170B51546044641B1D4F815
:101D1000140282693AB394F8FC01032824D025E028
:101D2000D4F8F41104F5827003291FD1D0E90221FF
:101D30008A420BD9531A83600846834200D3034674
:101D40009AB229462046FFF712FE0FE0D4F814029B
:101D5000016929B194F8FC01032801D12046884784
:101D60002046FFF737FE01E020469047002070BD77
:101D700010B5D0F82002FEF7A1FCBDE81040FFF737
:101D80003ABFD0F82002FEF7B3BC000010B51949E5
:101D90000446C1F85C04C0F8201217480860082007
:101DA00048600220886000208861C8610862084697
:101DB000FEF7A6FD08B1FEF728FA0022D4F82002AB
:101DC0001823114604F50874FEF70AFC5823002274
:101DD00080212068FEF704FC9823002281212068DE
:101DE000FEF7FEFBD823002201212068FEF7F8FB56
:101DF000002010BDD8050020005C00400A06D0F885
:101E0000200201F07F0100EB411002D590F82A007A
:101E1000704790F82A02704710B51C461346D0F858
:101E200020022246FEF76CFCBDE81040FFF7E3BE3F
:101E300010B5D0F82002FEF785FCBDE81040FFF792
:101E4000DABE70B50022044640231146FFF7E4FFD6
:101E500040252B46002280212046C4F81051FFF770
:101E6000DBFF0120256284F8FC01D4F8180228B1B8
:101E7000D4F814022179426820469047002070BDB2
:101E800090F8FD1180F8FC110020704710B590F813
:101E9000FC11032904D1D0F81412C96901B1884793
:101EA000002010BD01740020704710B5D0F820024A
:101EB000FEF7BFFDBDE81040FFF79DBE70B50446BC
:101EC00000F50270054600F012F90120C4F8F40193
:101ED000B4F80E02C4F8F80194F8080210F01F01DB
:101EE0000AD001290DD0022910D000F0800120462F
:101EF00000F011F8002070BD2946204600F05DF981
:101F0000F8E72946204600F03FFAF3E72946204645
:101F100000F0CCF9EEE710B5D0F82002FEF729FC6E
:101F2000BDE81040FFF767BE10B5D0F82002FEF7FD
:101F30009BFDBDE81040FFF75EBE90F8FC1180F8F5
:101F4000FD11042180F8FC110020704710B5D0F875
:101F50002002FEF739FCBDE81040FFF74CBE10B57B
:101F6000FEF709FF002010BD10B5FEF721FF00208D
:101F700010BD10B504460121FFF767FE8121204600
:101F8000FFF763FE2046FEF730FFD4F8180220B1B9
:101F900000F014FA0020C4F81802002010BD000060
:101FA0000A2101800048704738010020202101806B
:101FB00000487047F8000020202101800048704749
:101FC000D80000202021018000487047180100201F
:101FD00070B50546007C0024B8B1402302220121DF
:101FE0002846FFF719FF4023022281212846FFF7E8
:101FF00013FF4FF41B7000F0E3F9C5F8180270B13D
:102000002846FEF7F7FE204670BD4FF400763346B3
:10201000022201212846FFF7FFFE3346E4E70124B0
:10202000F1E709B1C0F81C120020704770B50646F0
:10203000D0F8185208780C4610F0600126D02029FC
:1020400053D16178FE2902D0FF2919D10EE06188B1
:10205000B1B9E188012913D1000611D5D6F81C02C7
:102060008069804701222946286019E0618839B9D2
:10207000E18829B9000603D43046FEF7DCFE34E0DF
:1020800021463046FFF783FC022070BD60780128AE
:102090000DD00A2802D00B2827D105E00122291DE6
:1020A0003046FFF78AFC20E0A07868601DE02179C7
:1020B0003046FFF75DFE21793046FFF7C6FD2079F7
:1020C0004FF400730006307C04D500B14023022297
:1020D000812103E000B14023022201213046FFF7B5
:1020E0009BFE21793046FEF731FE002070BD0A7854
:1020F00002704A7842708A78CB7802EB03224280E1
:102100000A794B7902EB032282808A79C97902EB42
:102110000121C18070470246002011B1C2F814129B
:1021200070470220704710B5D0F8142202241AB16B
:102130001268904700B90024204610BD70B50E46C5
:102140001A4D897804462970012928D894F8FC0191
:10215000022802D0032822D105E099B10320616052
:1021600084F8FC0109E091B1606888420AD0C1B2EC
:102170002046FFF7F5FB297861602046FFF7D3FF83
:1021800002280CD02046BDE87040FFF723BC022097
:1021900084F8FC0120466160FFF7E2FBF2E731467C
:1021A0002046BDE87040FFF7F2BB00009C00002015
:1021B00010B5FFF7B9FE002010BD2DE9F041002653
:1021C0004B78012532460A2B43D2DFE803F03C5816
:1021D0004251420805422A27FFF77AFC63E0044691
:1021E0008888C8B9C888B8B9887800F07F0794F89B
:1021F000FC01032810D084F8FE7139462046FFF711
:1022000054FE2046FFF7E6FB1FB1022084F8FC01D4
:1022100049E084F8FC5146E020461AE0FFF78EFFC3
:1022200041E0CB88012B14D190F8FC31022B02D075
:10223000032B0ED104E08260012200F1080114E0BA
:102240000122011D11E090F8FC21022A04D0032A8A
:1022500002D0FFF79CFB26E0C560D0F8041209B15C
:102260000321C160022200F10C01FFF7A6FB1AE076
:1022700004464888012816D1C4F804520BE00446ED
:1022800090F8FC01022801D00328C5D14888012814
:1022900009D1C4F80422D4F8140282682046904779
:1022A0002046FFF797FB3046BDE8F08170B50D463C
:1022B0000446287800260979C0F34110012806D089
:1022C0006878A0B301281FD003283FD107E0D4F8D5
:1022D00014022946826820469047002070BD94F879
:1022E000FC01022817D003282CD1688828B921B115
:1022F000802902D02046FFF70EFED4F814022946AA
:1023000082682046904713E094F8FC01022802D02E
:10231000032817D103E0C9B180291BD116E06888D2
:10232000A0B9480604D02046FFF786FCE5E703E0A5
:102330002046FFF74FFB09E094F8FC01022807D084
:1023400003280BD029462046FFF721FB304670BDFD
:102350004806FBD02046FFF7DEFDF7E7080601F050
:102360007F0004EB001501D5143501E005F58275F9
:102370002046FFF743FD00B10120286002222946D4
:102380002046FFF71AFBE1E770B5054690F8FC011F
:102390000C4603280DD1207901280AD8D5F814025B
:1023A000826828469047E08830B92846FFF712FB3C
:1023B00002E02846FFF7EBFA002070BD70470000EE
:1023C00000487047680300202DE9F047CC780A7870
:1023D00048F68F1334B1012C6DD0022C08D0032C99
:1023E00013D10BE030F822401C4044F400730AE0A3
:1023F00030F822401C4020F8224006E030F822400D
:102400001C4044F4C06320F822300C7830F824508B
:1024100048F68F72154048F280031D43254320F88B
:1024200024508D7A48F6BF7904274BF68F7A48F20C
:10243000C0044CF28006EDB30D7830F825C048F2A8
:1024400080180CEA020C4CEA080C20F825C0CD8854
:10245000B0F850C025F0010591F800800CEBC80CD5
:1024600000EB4C0CCCF800540D89B0F850C025F0AE
:10247000010591F8008007EBC807674400EB4707A8
:10248000C7F800544D78002D0D7830F825704FEACC
:1024900047477DD0002F05DA30F8257017403743C5
:1024A00020F825700D7830F825707F0608D530F8B3
:1024B000257001E024E01DE01740274320F8257037
:1024C0000C7830F824501540354320F824500C780F
:1024D00030F8242002EA09021A4320F824200A785E
:1024E00030F8221001EA0A01194320F822100020D6
:1024F000BDE8F08730F822401C4044F4806382E756
:102500004D78F5B18D88B0F8506025F001050F7851
:1025100006EBC70600EB4606C6F800540D7830F807
:102520002560760605D530F825601640264320F84C
:1025300025600A7830F8221001EA090181F02001B3
:10254000D2E78C88B0F8505024F0010491F800C014
:1025500007EBCC073D4400EB4505C5F80044B0F857
:1025600050400D78062707EBC5052C4400EB4407C7
:102570000C694FF6FF7C07F580673E2C0CD9C4F33D
:102580004F15E40601D16D1EADB20CEA852400E0C2
:102590001EE044F4004407E0C4F34F05E40701D013
:1025A0006D1CADB20CEA85243C600C7830F82450E8
:1025B0006D0405D530F824501540354320F82450DB
:1025C0000A7830F8221001EA0A0181F440518BE7C1
:1025D000002F05DA30F825701740374320F82570B2
:1025E0000D7830F82560760605D530F82560164060
:1025F000264320F825600E7830F8265015402543F4
:1026000020F826500C7830F8242002EA0A0282F4DE
:1026100040521A4320F824200A7830F8221001EAA8
:10262000090161E7002070472DE9F04391F80A8025
:1026300091F801C00A7848F6BF774BF68F7948F2D7
:10264000800348F2C0054CF2800648F68F74B8F15A
:10265000000F2ED0BCF1000F30F822C04FEA4C4CD6
:102660004ED0BCF1000F07DA30F822C00CEA040C9F
:102670004CEA060C20F822C00A7830F822C05FEA43
:102680004C6C07D530F822C00CEA040C4CEA050C5F
:1026900020F822C00A7830F822502540354320F82F
:1026A00022500C7830F824203A401A4320F8242095
:1026B0001BE0BCF1000F0ED030F82260760605D585
:1026C00030F8226026402E4320F822600A7830F845
:1026D000221039400EE030F822506D0405D530F854
:1026E00022502540354320F822500A7830F8221035
:1026F00001EA0901194320F822100020BDE8F08307
:10270000BCF1000F07DA30F822C00CEA040C4CEAE6
:10271000060C20F822C00A7830F82260760605D52B
:1027200030F8226026402E4320F822600E7830F8E0
:10273000262022402A4320F826200C7830F8242036
:1027400002EA09021A4320F82420BFE7002070475C
:102750000020704700B50121A0F840100021A0F82A
:102760004010A0F84410A0F8501000F03AF90020F2
:1027700000BD30F8401F21F43D410180002070472A
:102780000020704730B54D780A78002D48F68F74D8
:1027900030F8225048F2800312D06D0607D530F889
:1027A0002250254048F2C004254320F822500A78E0
:1027B00030F8221048F6BF74214081F0300111E05A
:1027C0006D0407D530F8225025404CF28004254393
:1027D00020F822500A7830F822104BF68F742140EE
:1027E00081F44051194320F82210002030BD10B56B
:1027F0000A7848F2800352B14978002930F8221053
:1028000010D048F6BF74214081F010010FE001881C
:102810004BF6BF72114081F4805181F010011943D1
:10282000018007E04BF68F74214081F480511943F9
:1028300020F82210002010BD2DE9F0410D4606467B
:10284000896995F801C00023AA7A022728690C46F5
:1028500048F28008BCF1010F05D0814252D90446EC
:10286000081AA8614FE0814203D90446081AA861FA
:1028700000E0AB617AB1287836F820104906B6F846
:10288000501007EBC000084406EB4000C0F80044BD
:1028900012D52A8911E0A3B2AA883046696900F0EE
:1028A000CCF8B6F85000297807EBC101084406EBD4
:1028B0004000C0F800441CE0EA88A3B230466969D1
:1028C00000F0BBF8687848F68F7110B1012807D086
:1028D0000FE0287836F820200A4048F2C00105E0D1
:1028E000287836F820200A404CF280010A4326F866
:1028F0002020297836F8210048F6BF72104080F079
:10290000300067E0AB6106234FF6FF701AB1BCF1EF
:10291000000F1BD056E0B6F850102A783E2C03EB7F
:10292000C202114406EB410202F5806239D9C4F3B8
:102930004F11E30632D000BF00EA812040F400408E
:1029400002E000BF00EA812010603BE0B6F85010C2
:102950002A783E2C07EBC202114406EB410202F535
:1029600080620BD9C4F34F115FEAC46C01D1491ED8
:1029700089B200EA812141F4004108E0C4F34F012B
:102980005FEAC47C01D0491C89B200EA8121116050
:1029900069780029BFD001290AD013E0491E89B205
:1029A000CAE7C4F34F01E307CCD0491C89B2C9E799
:1029B000B6F85000297807EBC101084406EB400047
:1029C000C0F80044297836F821004BF68F72104089
:1029D00080F4405040EA080026F821000020BDE8BD
:1029E000F08130F8401F41F43F41018000207047E2
:1029F00000207047002070470148FDF7FABE000034
:102A0000D8050020B0F84400704700005B1C00EBC4
:102A100042005B0800F5806006D000BF30F8042B50
:102A200021F8022B5B1EF9D170470020704711B9C5
:102A30008021A0F84C100020704710B55B1C00EB03
:102A400042005B0800F5806009D011F8012B5B1E85
:102A500011F8014B42EA042220F8042BF5D110BDF5
:102A6000FEE702E008C8121F08C1002AFAD1704729
:102A70007047002001E001C1121F002AFBD17047FE
:102A800070B504464FF40071FDF775FB19A02023C3
:102A9000016821604168616000892081A37208207B
:102AA000E072002121736173E18145F29C02228270
:102AB0006282A182E18222836183E16104F12000CC
:102AC0000FA42568056065684560248904814E244B
:102AD0008472C372182303734173C18102824282DC
:102AE0008182C1820283052141834FF4E031C161BB
:102AF00070BD0000424F4F544C4F4144455220009E
:102B00004649524D5741524542494E0010B51B4A65
:102B10001A4C0A44920864426FF07043A14210D1EB
:102B2000D91F01604FF0FF31C0E90113C3600521D7
:102B3000036153185B1C40F82130491C8029F8D3ED
:102B400010BD0F4CA1424FF000010FD15418641C6E
:102B500040F82140491C0429F8D3052100220361D3
:102B600040F82120491C8029FAD310BD53185B1C62
:102B700040F82130491C8029F8D310BD0008DDFF42
:102B8000001823002DE9F04F87B015460C46064685
:102B90000127FDF773FC3E48002186420CD10290CC
:102BA00005914FF070000091039005A96846FDF76C
:102BB000C7FB10B1002764E063D3364906EB05007C
:102BC00088425ED816F003024FF0FF0A0DF1080BA1
:102BD0003CD0C2F1040126F00309A94200DD2946D8
:102BE0008DF808A08DF809A08DF80AA08DF80BA02B
:102BF00000205B460BE000BF00EB02086D1E401C8E
:102C000014F801CB03F808C0EDB2C0B2761C8842BC
:102C1000F2D3002349460220029AFDF7EFFB15E0AC
:102C200020788DF8080060788DF80900A0788DF87C
:102C30000A00E0788DF80B00002331460220029A4A
:102C4000FDF7DCFB2D1F241DEDB2361D042DE7D250
:102C5000BDB18DF808A08DF809A08DF80AA08DF8F7
:102C60000BA00020594604E014F8012B0A54401C24
:102C7000C0B2A842F8D3002331460220029AFDF7E1
:102C8000BDFBFDF7B1FB07B03846BDE8F08F000093
:102C9000004000080000020870B5CA0501D00020FD
:102CA00070BD5524AA25E1B1B1F5406F19D04FF49C
:102CB000007291421FD0B1F5606F1CD0B1F5806FEA
:102CC0002AD0B1F5805F27D0284BCC184FF4085399
:102CD0009C4203D3264C0C449C4226D2FFF716FF9D
:102CE00041E006465A222349FDF72CFA4FF4D271EF
:102CF00006F15A0012E006461146FDF73CFA1E485E
:102D000030601E48C6F8E4011D48C6F8E80140F6E8
:102D10000500C6F8EC0103E006461146FDF72BFA64
:102D200086F8FE4186F8FF511DE0B1F5800F14D002
:102D3000144C23688B4213D864688C4210D9CB1A88
:102D400003F500714FF4E032914200D31146CA1AE4
:102D50000D491944FDF7F6F905E0FFF791FE02E091
:102D60001146FDF708FA012070BD00000008DDFFE4
:102D70000084CEFFAC300008525261417272416152
:102D8000BE98030000000020004000082DE9F84331
:102D90000646C80502D00020BDE8F8834FF4800045
:102DA000814233D3DFF86880471381421FD1002569
:102DB0007419207A482816D1607A452813D1A07A50
:102DC000582810D100F000F9608B217D40EA0140C5
:102DD000400241F6FE7100EB4120C8F80000E269B4
:102DE0001044C8F804002035BD42E1D30EE0D8F805
:102DF0000000884207D8074800F0F0F8394630460E
:102E000000F00AF802E001208DF800000120C3E77D
:102E100000000020852B00082DE9F84F00240F4604
:102E200080464FF00A0A4FF0010BDFF88C912646DE
:102E3000624DAFE018F80400002874D0A97859B1A9
:102E40004A1E0A2A23D8A0F13002092A0CD9113AC5
:102E5000052A04D80A3207E0AE716E7017E0A0F1BF
:102E60006102192A69D80A32D2B20092782A64D053
:102E70006A78009BAAB195F805C043EA0C1395F84F
:102E800006C0634485F8063082F001026A700C299E
:102E900053D2DFE801F00819191F1F1F1F272B3419
:102EA000494B6B71F0E70D2873D00A2871D03A288E
:102EB00043D1EE702E712E81FF213F48FDF75BF963
:102EC000AE8185F802B064E0EA78009840EA02102A
:102ED000E87004E02A89009840EA02102881491C21
:102EE000A97056E0009840BB082006E0009805282D
:102EF00023D82871E87898B10920A87049E0A989F9
:102F0000009BC1F34700491C19F800C043EA0C13A9
:102F100009F8003088B2A881E978B1EB500F38D8B1
:102F200085F802A035E038E00B20E6E7A989E878CB
:102F3000B1EB400F01D1A87910B10020BDE8F88FA6
:102F40002879022805D004280AD078B1012826D093
:102F50001EE0B9F8000040BA688185F800B017E0BB
:102F6000B9F8000040BA68812E7011E02B697BB17E
:102F700028786A890028288902D000EB021001E035
:102F800040EA0240C1F347020B4998470028D5D0D8
:102F9000AE70641CBC42FFF44DAF0120CEE7BFF31E
:102FA0004F8F07480168074A01F4E061114301604F
:102FB000BFF34F8F00BFFDE7380C002078000020E2
:102FC0000CED00E00400FA05034800218170018146
:102FD00041810170704700007800002001490861BC
:102FE00070470000780000200A48016809B1491CB8
:102FF0000BD1416809B1491C07D1816809B1491C4D
:1030000003D1C06818B1401C01D0012070470020D6
:103010007047000000400008034901208968884388
:1030200000D00120704700000008014070B5064C38
:103030006568FDF775F9206880F308880348046027
:10304000AC46BDE8704060470040000808ED00E075
:1030500086B0FDF735FAFEF705FC14216846FDF74A
:103060008AF81048816941F00401816180696946EC
:1030700000F00400059040F201100090082001903B
:10308000012004900848FDF74DFDFFF7ADFF10B19A
:10309000FFF7C2FF10B1FDF7F7FEFEE7FFF7C6FF2F
:1030A000FEE700000010024000080140EBFE904DDA
:1030B00053444F53352E300002017C1102000000B2
:1030C00000F800003F00FF003F000000C1C0030007
:1030D000420700000000000002000000010006009E
:1030E000000000000000000000000000800029B087
:1030F0004990024E4F204E414D4520202020464110
:10310000543332202020008002021F00000053545C
:103110004D202020202050726F6475637420202081
:10312000202020202020302E30310000000300809D
:103130008300000000000000000006000000000006
:10314000000000006431000800000020440100007D
:10315000B0010008143200084401002014100000DF
:10316000722A00081123064013C641130D1A1B08CA
:103170003D041A49041A71041A990413ED191B0825
:103180001908170403090412013202164083042AA5
:1031900057260201020301031A1A0313FB171B0827
:1031A000E7041AFF041303181B0807041A33041A50
:1031B000F710130631021408195311821044A24A61
:1031C0000413D11F1B0873048B2D20341A5F101AAF
:1031D0006904C11AB9101AAD041AC5041AA104145D
:1031E0000902201F010104C0320947180A0208061B
:1031F000500507058102C42C070501070914202288
:1032000040292019070B1C0907201B0A0645212A03
:0432100040B40000C6
:04000005080000ED02
:00000001FF
