:020000040800F2
:100000005812002001010008231200089D0C00086E
:10001000851100089B0200086B2E000800000000FC
:10002000000000000000000000000000A31B00080A
:100030003103000800000000A7150008A51B0008F8
:100040001B0100081B0100081B0100081B01000820
:100050001B0100081B0100081B0100081B01000810
:100060001B0100081B0100081B0100081B01000800
:100070001B0100081B0100081B0100081B010008F0
:100080001B0100081B0100081B0100081B010008E0
:10009000F12D00081B0100081B0100081B010008CE
:1000A0001B0100081B0100081B0100081B010008C0
:1000B0001B0100081B0100081B0100081B010008B0
:1000C0001B0100081B0100081B0100081B010008A0
:1000D0001B0100081B0100081B0100081B01000890
:1000E0001B0100081B0100081B010008DFF80CD0F1
:1000F00000F054F800480047AD35000858120020C1
:100100000648804706480047FEE7FEE7FEE7FEE7B1
:10011000FEE7FEE7FEE7FEE7FEE7FEE75D1C000800
:10012000ED000008202A04DB203A21FA02F0002129
:10013000704721FA02F3D040C2F1200291400843F7
:100140001946704740EA01039B0703D009E008C93C
:10015000121F08C0042AFAD203E011F8013B00F88C
:10016000013B521EF9D27047D2B201E000F8012BD8
:10017000491EFBD270470022F6E710B513460A4627
:1001800004461946FFF7F0FF204610BD421C10F848
:10019000011B0029FBD1801A70470000064C074D57
:1001A00006E0E06840F0010394E807009847103447
:1001B000AC42F6D3FFF79EFFA0380008C038000815
:1001C00070B58C1810F8015B15F0070301D110F819
:1001D000013B2A1106D110F8012B03E010F8016B46
:1001E00001F8016B5B1EF9D12B0705D40023521EC9
:1001F0000DD401F8013BFAE710F8013BCB1A921C31
:1002000003E013F8015B01F8015B521EF9D5A1422E
:10021000D8D3002070BD2DE9FF4117460E46804619
:10022000002400F1F00516E0102229466846FFF789
:1002300089FF4146684600F031F869460020325C8B
:100240000B5C5A403254401CC0B21028F7D32846E9
:1002500000F0FAF81034BC42E6D3BDE8FF8110226A
:10026000F030FFF76FBF00F037BDF0B5002400237A
:1002700004EB800601EB840503EB860CEF5C12F8BF
:100280000CC087EA0C07EF545B1CDBB2042BF3D3E2
:10029000641CE4B2042CEAD3F0BDFEE72DE9F04182
:1002A0000F460A46044601460020FFF7DEFF1F4EB8
:1002B000012500205FF0000104EB8102491C135C62
:1002C000C9B20429F35C1354F6D3401CC0B204280D
:1002D000F0D3607861796170617A6171617B61727C
:1002E0006073A078A17AA170A072A079A17BA1719E
:1002F000A073E078E17BE170E17AE173E179E1728A
:10030000E0710E2D0AD0204600F03EFF3A4621460D
:100310002846FFF7AAFF6D1CEDB2CAE73A46214610
:10032000BDE8F0410E20FFF7A0BF00007B370008BA
:100330007047704706490020C8610648016941F0CE
:1003400004010161016941F0400101617047000051
:10035000380E002000200240064A0021D1610649E3
:100360000A6942F002020A614861086940F04000EF
:1003700008617047380E002000200240044B002224
:10038000DA61044A136943F0010313610180704785
:10039000380E00200020024014480022C168CB061D
:1003A000134904D5CA6942F00202CA611022C36827
:1003B0005B0705D5CB6943F00103CB6142F0040232
:1003C000C369DB0707D0CB6943F00403CB61C16984
:1003D00021F00101C161A2F58071013901D0C26033
:1003E0007047C16921F00101C161704700200240DE
:1003F000380E002070B5054600F016F90646114C7F
:1004000009E0681C07D025B100F00EF9801BA84256
:1004100001D9032070BDE068C007F2D1E068800612
:1004200001D52020E060E068C00605D4E069C0077F
:1004300002D1E068400703D5FFF7AEFF012070BD91
:10044000002070BD002002401FB504460146102266
:100450006846FFF777FEDDE9000180EA9100029926
:10046000029AC90881EAD2114840039980EA5112E0
:1004700000980199400840EAC1700090480802992C
:1004800040EAC17001904808039940EAC1700290A7
:10049000480840EAC2700390102269462046FFF7E0
:1004A00051FE1FBD064810B54FF0FF31C16000225C
:1004B0000261C160C26000F0F7F8002010BD0000CA
:1004C000001002402DE9F047054626480F46012658
:1004D000017E01290FD00121814601762868DFF8CD
:1004E00088804CF25034022808D0A2462046FFF7FC
:1004F00081FFA8B131E00220BDE8F0872046FFF778
:1005000079FF08BB0120FFF715FF2046FFF772FFB8
:10051000D8F81010064621F00401C8F810101CE0AD
:100520004FF0FF303860AC6811E02046FFF714FF51
:100530005046FFF75FFFD8F81010060021F00201C7
:10054000C8F8101001D03C6007E004F58064D5E9DC
:10055000020100EB8120A042E7D8002189F81810A1
:100560003046C9E7380E00200020024003480169E8
:1005700041F080010161002070470000002002402E
:100580002DE9F05F07461C4888460024017E154689
:100590001E46012909D00121814601764CF2503ACC
:1005A0005046FFF727FF18B122E00220BDE8F09F78
:1005B000012F02D0022F00D00427D346DFF83CA041
:1005C000220128463146FFF7ADFD81B208EB440019
:1005D000FFF7D4FE5846FFF70DFFDAF8102022F09F
:1005E0000102CAF8102018B9641CE4B2BC42E7D377
:1005F000002289F81820D9E7380E00200020024098
:10060000064900200A69120607D5054A4A60054ACC
:100610004A600969090600D50120704700200240A0
:1006200023016745AB89EFCD014880687047000022
:100630008800002002488168027811448160704778
:1006400088000020074810B5016841F010010160E2
:10065000032000F075F8002000F006F800F026F8FE
:10066000002010BD0020024070B50D4D04464FF42F
:100670007A712878B1FBF0F00A490968B1FBF0F013
:1006800000F0F8FA48B9102C07D200222146501E7B
:1006900000F036F800206C6070BD012070BD0000D5
:1006A0008800002094000020704700000C4808B526
:1006B000816941F001018161816901F001010091CD
:1006C000C16941F08051C161C06900F08050009063
:1006D0000448416821F0E06141F00071416008BDCB
:1006E000001002400000014000F01F020121914073
:1006F0004009800000F1E020C0F8001170470000C0
:10070000F0B40E4B1B680C46C3F30223C3F107057C
:10071000042D00D90425191D072901D2002300E06A
:10072000DB1E012606FA05F1491E214099409E4034
:10073000761E16403143F0BC00F074BD0CED00E0B5
:10074000064900F0070208684FF6FF03184040EA28
:100750000220034A10430860704700000CED00E0DF
:100760000000FA0510B50C0605D501F07F0100EB7D
:100770004110283003E000EB411000F50A7099B2F7
:1007800032B101228272C180190C0181002010BD9A
:10079000002282728180F9E7704700EB4112D0F8A5
:1007A0005C04D26B01F056BC00EB4112D0F85C0443
:1007B000D2F83C2201F0A3BC10B504460A460B0651
:1007C00001F07F0004EB401101D5283101E001F573
:1007D0000A710870D009487094F82804012809D0DB
:1007E000012084F82804206802F01AF9002084F817
:1007F000280410BD022010BD70B50A460446090643
:1008000002F07F0003D504EB4011283103E004EB34
:10081000421101F50A7100258D700870D0094870E9
:1008200094F82804012809D0012084F828042068BD
:1008300002F0A4F984F82854002070BD022070BD95
:1008400010B5044690F8280401280AD0012084F845
:100850002804080607D501F07F01206802F0C6FAD7
:1008600004E0022010BD206802F0BEFA002084F8E7
:10087000280410BD01F00F0100EB4110B0F8440254
:1008800080B2704770B504460D460E0601F07F0039
:1008900004EB401101D5283101E001F50A7108701F
:1008A000E80948700A61CB7094F82804012809D03F
:1008B000012084F82804206801F082FF002084F8D9
:1008C000280470BD022070BD70B50C4601F07F0594
:1008D00000EB4511C1E98F230022C1F8442281F8C1
:1008E000292281F8285201F50A716206006802F097
:1008F0009FF9002070BD70B50D460446090605F04D
:100900007F0003D504EB4011283103E004EB4511CF
:1009100001F50A7101228A700870E809487094F89C
:100920002804012807D084F82824206802F05BF905
:10093000680602D006E0022070BD04F22C41206857
:1009400002F01AF9002084F8280470BD70B50C4636
:1009500001F07F0500EB4511C1E90F2300224A6435
:10096000012281F8292001F8285F6206006802F060
:100970005FF9002070BD10B50446006802F03EFA31
:10098000000402D5204600F05DFC206802F036FA33
:1009900040050CD5206830F8441F21F480610180A7
:1009A000204600F0EDF80021204600F004F9206810
:1009B00002F024FA400405D5206830F8441F21F4E1
:1009C00080410180206802F019FA800405D5206872
:1009D00030F8441F21F400510180206802F00EFA23
:1009E000C00414D5206830F8401F21F004010180B4
:1009F000206830F8401F21F008010180204600F0F7
:100A0000D2F8206830F8441F21F48051018020681A
:100A100002F0F4F900051AD5206830F8401F41F0C3
:100A200008010180206830F8441F21F40061018032
:100A3000206830F8401F41F004010180206802F076
:100A4000DDF9C043C00402D5204600F001F920685A
:100A500002F0D4F9800508D5206830F8441F21F44D
:100A600000710180204600F0A2F8206802F0C6F96B
:100A7000C00505D5206830F8441F21F4807101803D
:100A800010BD00002DE9F04186B004004FF00005D4
:100A900004D094F82904002620B108E0012006B013
:100AA000BDE8F08184F82864204600F04BF803206C
:100AB00084F82904206802F058F804F11001142287
:100AC00088466846FFF73EFB94E80F0001F0A6FF5A
:100AD0000021206802F0A5F95FF0010704EB451042
:100AE00080F8297000F8285F8581C670066146612C
:100AF0006D1C86610F2DF1D35FF0000004EB4011F7
:100B000081F8296281F82802888681F82B62C1F871
:100B10003862C1F83C62401CC1F840620F28EDD336
:100B2000142241466846FFF70DFB94E80F0002F0DF
:100B30000DF884F8246084F82974206802F004F821
:100B40000020ACE708B500680B49884212D10B4879
:100B5000C16941F40001C161C069002200F40000D4
:100B6000009011461420FFF7CBFDBDE8084014208B
:100B7000FFF7BABD08BD0000005C00400010024055
:100B800070B5044680680125022801D0FFF7D1FB2B
:100B90002946D4F85C0401F081FBD4F85C04BDE87C
:100BA000704001F04ABBD0F85C0401F065BBD0F89E
:100BB0005C0401F067BB10B5044690F828040128D6
:100BC0000BD0012084F8280484F82410206802F057
:100BD0002AF9002084F8280410BD022010BDD0F8A6
:100BE0005C2400F22C41104601F064BB10B50446B1
:100BF00090F82804012810D0012084F82804014628
:100C00002046FFF7C9FD206801F09CFF206802F034
:100C1000E4F8002084F8280410BD022010BD10B5AF
:100C2000044690F8280401280FD0012084F82804F5
:100C3000206801F09AFF206802F0FBF8206801F0BC
:100C400083FF002084F8280410BD022010BD00009E
:100C500010B50446D0F85C0401F06BFBA0690028D5
:100C600004D00348016841F00601016010BD000096
:100C700010ED00E010B5401EB0F1807F01D30120DF
:100C800010BD4FF0E02460610F21601700F0CAFA38
:100C90000020A06107202061002010BDFEE70000B9
:100CA000F0B500230A24302537261F4611E000BF87
:100CB000B4EB107F02D905EB107C01E006EB107C51
:100CC00001F813C001EB430C00015B1C8CF80170B0
:100CD000DBB29342ECD3F0BDF0B5002301EB83050A
:100CE00011F8234000F8234000EB83046E7866700F
:100CF000AE78A670ED785B1CE570082BEED32A4C1D
:100D0000082399000E1F5FEA437E855D064465F364
:100D1000070296F801C0B7786CF30F22F67867F3F4
:100D2000174266F31F6212D1E75DA65D67F30F22DB
:100D3000655D66F3174265F31F621C4D14F80CC025
:100D400005EBD3052D788CEA050C6CF3070203F054
:100D50000705042D11D1D5B2655D65F30702C2F315
:100D60000725655D65F30F22C2F30745655D65F3F1
:100D70001742150E655D65F31F62A1F120055B1C2E
:100D8000465D0544564046546E78014486EA122674
:100D90004E70AE783C2B86EA12468E70ED7885EA6E
:100DA0001265CD70ADD3F0BD7B3700087B380008ED
:100DB000F0B50A68C2F30F2595FAA5F2B2FA82F3EC
:100DC00069E001229A402A4264D0082B03D240F203
:100DD00001129A4006E0A3F108024FF0011494407A
:100DE00044F0806292FAA2F700EB1264B7FA87F738
:100DF0004FEA870C0F27266807FA0CF7BE4392FAD2
:100E0000A2F7D1F804E0B7FA87F7BF000EFA07FEA1
:100E100046EA0E0626600E69C7684FEA122C9CFA55
:100E2000ACFCBCFA8CFC27EA122706FA0CF6374316
:100E3000C7604E68012E01D0092E2BD192FAA2F77D
:100E4000B7FA87F74FEA870C032707FA0CF72668EB
:100E5000D1F808E0BE4392FAA2F7B7FA87F7BF00CD
:100E60000EFA07FE92FAA2FC46EA0E06BCFA8CFCC9
:100E70004FEA8C0E4FF0040C26600CFA0EFC92FA2E
:100E8000A2F2B2FA82F2CF68920026EA0C069740EC
:100E90003E4326605B1C35FA03F292D10120F0BD7F
:100EA0004FF47A71B0FBF1F14FF0E020491E41613F
:100EB000002181610521016170470000014908603E
:100EC000704700009400002008B54FF0E0210A6947
:100ED0000092421C00D0401C0A69D20300D5401E7B
:100EE0000028F9D108BD70B5D0F81842054694F82D
:100EF000180240B9D4F8140228B1607A18B9012157
:100F0000284601F004FA8121284601F000FA607AAF
:100F1000022808D104F503722846BDE870401F235B
:100F2000012101F081B970BD70B5D0F818420646B4
:100F30000121D4F81002C4F83002D4F81402C4F825
:100F40003402304601F019F91F280DD12849D4F890
:100F50000C02884208D194F81912012904D894F897
:100F60001A0208B1102809D994F819122023052271
:100F7000304600F05AFD0220607209E004F21B22A4
:100F8000304600F023FB0028207A08DA052804D038
:100F90003046BDE87040FFF7A6BF012121E00228DE
:100FA00024D0012822D0032820D06189C9B1D6F8E5
:100FB0001852304604F10C02D5F814328B4200D29C
:100FC00019468BB2D5F83412C91AC5F8341200216B
:100FD00085F8381204212972BDE87040812101F0A2
:100FE000B1B93046BDE8704000F084B870BD000073
:100FF0005553424310B5D0F81842627A022A08D0FD
:1010000009060BD5012A09D0BDE81040012100F0E6
:1010100071B8812101F07BF90020607210BD10B51C
:10102000D0F818220446107A022805D0032801D0EF
:10103000042810D1002109E092F81912204602F28A
:101040001B2200F0C3FA002805DA01212046BDE882
:10105000104000F04FB810BD10B5D0F8182204466B
:10106000107A80B1012813D192F81912204602F2A9
:101070001B2200F0ABFA00280ADA2046BDE8104037
:10108000012100F037B82046BDE81040FFF74CBF03
:1010900010BDD0F8180200210172704770B5D0F869
:1010A0001842002105462172617284F85D1284F8AD
:1010B0005C12D0F81C0201680020884701212846F4
:1010C00001F052F88121284601F04EF804F5037230
:1010D0002846BDE870401F23012101F0A5B8D0F8D3
:1010E000182200211172012151721F2302F503728F
:1010F00001F09AB870B5D0F8184205460B48C4F80C
:101100002C0284F83812002020720D2304F50B7293
:101110008121284601F016F904F503722846BDE83E
:1011200070401F23012101F07FB800005553425346
:1011300010B500220F49104800F065FF08B1FFF715
:10114000F8F80E490C4801F0E2F908B1FFF7F1F8A0
:101150000B49094801F061F908B1FFF7EAF80648C0
:1011600001F022FA002803D0BDE81040FFF7E1B8F3
:1011700010BD000004000020400100209C00002061
:1011800054000020FEE700002DE9F0435FF0000569
:1011900000EB850C10F825209CF801709CF80240AB
:1011A00082EA07039CF803604FEAD31884EA060931
:1011B00008EBC80883EA090108EB480888EA4303FA
:1011C0004B40534000F8253087EA04034FEAD31818
:1011D00008EBC80808EB480888EA43034B405F4027
:1011E0004FEAD91303EBC30303EB430383EA490339
:1011F0004B405C4086EA0203DA0902EBC20202EBD2
:10120000420282EA43024A408CF8017056406D1C4B
:101210008CF80240EDB28CF80360042DB8D3BDE821
:10122000F08370470907090E002806DA00F00F0066
:1012300000F1E02080F8141D704700F1E02080F8F4
:10124000001470472DE9FC5F4FF000080446ADF82C
:101250000480ADF8008048F60F7B4FF002094FF490
:10126000806692E1BDF8041011F00F072BD030F822
:101270002710ADF80010BDF80010090478D530F83B
:10128000272040F68F710A4020F8272004EB4715ED
:1012900095F8320205F50A750028206869D029788A
:1012A00030F8212052047DD5B0F8503009EBC1014F
:1012B000194406EB4101415AC1F309015FEA010AF1
:1012C00071D0EA88D0E0BDF80410C9062AD401889C
:1012D00001EA0B010180206804F12805B0F85020D4
:1012E0002B7809EBC301114406EB4101405AC0F3CE
:1012F00009006064E16B0844E06300212046FFF7C9
:101300004CFA94F824000028ABD0A8690028A8D192
:1013100094F82400216840F08000A1F84C0084F883
:10132000248032E1018804F50A75ADF80010BDF89B
:10133000001009051ED5B0F850302978062202EBBE
:10134000C101194406EB4101405A04F22C41C0F39B
:101350000903EB61AA88206801F054FD2068018828
:1013600040F68F72114001802046FFF738FC0CE1F7
:10137000A0E055E0BDF800100904D2D5028840F67F
:101380008F710A4002802068B0F850302978062218
:1013900002EBC101194406EB4101405A83059B0D44
:1013A000EB6101E051E063E008D0AA886969206838
:1013B00001F028FDE9696869084468610021204658
:1013C000FFF7F2F92068B0F85010891D06EB4101D3
:1013D000014428693E280CD9C0F34F12C00601D140
:1013E000521E92B24FF6FF7000EA822040F4004095
:1013F00009E0C0F34F02C00701D0521C92B24FF671
:10140000FF7000EA82200860216808884BF68F721E
:10141000104080F4405048F2800210430880B4E04D
:10142000B0F850202B78062101EBC301114406EBE4
:101430004101415AC1F309015FEA010A24D0AA8897
:101440005346696901F0DEFC1EE0B0F85020062327
:1014500003EBC101114406EB4101415AC1F30901FB
:101460005FEA010A04D02A895346696901F0CAFC7F
:101470002978206830F8213048F68F72134048F2FE
:10148000C002134320F82130E96901EB0A00E8614A
:10149000696901EB0A026A61AB6913B128695045B9
:1014A00004D929782046FFF77FF903E02978204600
:1014B000FFF70AFABDF80000000666D5206804EBC5
:1014C000471530F8271001EA0B0120F8271095F88E
:1014D000320028350028206812D0297830F82120E1
:1014E000B0F8503052061ED509EBC101194406EB85
:1014F0004101405A83059B0DEB6124D0EA881EE030
:10150000B0F850302A7809EBC201194406EB4101CA
:10151000405A83059B0DEB6121D0AA886969206838
:1015200001F090FC1BE0062202EBC101194406EB1E
:101530004101405A83059B0DEB6104D02A896969FA
:10154000206801F07FFC2978206830F8212048F6D7
:101550008F731A404CF280031A4320F82120206830
:10156000B0F850202B7809EBC301114406EB410180
:10157000405AC0F30900E86169690A186A6129786C
:10158000AB69204663B1FFF7E1F92068B0F8441079
:10159000ADF8041009043FF565AE0020BDE8FC9FDE
:1015A000FFF7FBF8F1E7704710B5D0F818421A447E
:1015B000D4F860329A4206D92123052200F035FA88
:1015C0004FF0FF3010BD002010BD00002DE9F041AC
:1015D000137800244FF0FF35232B73D00DDC1A2B2A
:1015E00071D005DCBBB1032B36D0122B11D160E0DA
:1015F0001B2B01D01E2B0CD181E02A2B73D004DCD5
:10160000252B71D0282B04D1A1E02F2B6DD05A2B84
:101610006CD02023A9E0D0F8187206468846D7F887
:10162000140240B197F81912202305224FEA060050
:1016300000F0FBF9A4E0D6F81C0281684046884718
:1016400040B13A2302224146304600F0EEF905202F
:10165000387295E07C8197E0D0F818120023C81802
:101660005B1CDBB20473122BF9D3702008730C20BF
:10167000C87491F85C3291F85D02834212D001EB9C
:10168000C3005B1C90F83C528D7390F841520D766C
:1016900090F840024876D8B281F85C02042801D163
:1016A00081F85C4212204881107912286CD8488158
:1016B0006AE05578D0F81832ED0705D00720334995
:1016C000588114E03BE01EE0D0F81C0201EBC101A0
:1016D0001279C06900EB81010879401D824200D86F
:1016E0001046588108E036E02DE038E019E0401E51
:1016F00080B21D180A5C2A730028F8D144E0D0F8A3
:101700001802448140E0D0F818120820204A48818D
:10171000401E0004000C01EB0005135C2B73F7D195
:1017200032E0D0F8180208211A4A4181491E090402
:10173000090C00EB0105535C2B73F7D124E0BDE8E5
:10174000F04100F03BB9BDE8F04100F00CB9BDE854
:10175000F04100F0B3B8BDE8F04100F081B9527833
:10176000D0F81862920702D52423052260E7B6F864
:10177000682293B2D6F86422FFF716FF002802DA37
:101780002846BDE8F08174812046FAE786380008D3
:101790008D380008953800082DE9F041D0F818423E
:1017A00006464FF40070D4F868520F46854200D3C5
:1017B0000546B4F85E02B5FBF0F18BB2D4F86412C2
:1017C000B1FBF0F2D6F81C0204F10C018846D0F807
:1017D00010C03846E047002809DA112304223946B0
:1017E000304600F022F94FF0FF30BDE8F081ABB297
:1017F00042468121304600F0A5FDD4F86402284419
:10180000C4F86402D4F86802401BC4F86802D4F833
:101810003412A1EB0501C4F8341201D10320207267
:101820000020E2E72DE9F047D0F818424FF40076A7
:101830008846D4F868520746B54200D33546B4F816
:101840005E02B5FBF0F18BB2D4F86412B1FBF0F29A
:10185000D7F81C0204F10C018946D0F814C04046A8
:10186000E047002809DA032304224146384600F005
:10187000DCF84FF0FF30BDE8F087D4F8640228446C
:10188000C4F86402D4F86802401BC4F86802D4F8B3
:101890003412A1EB0501C4F834120AD0B04200D3CF
:1018A000304683B24A460121384600F0BDFC002094
:1018B000E1E700213846FFF71DFCF8E72DE9F0418C
:1018C000D0F8184205461746207A8846F0BB94F8AF
:1018D00018024FF0FF36000635D5D5F81C02816896
:1018E0004046884730B13A2302224146284600F05C
:1018F0009CF813E0D7F80200414600BA20F0FF023E
:1019000078790243C4F86422B7F8070043BA28463E
:10191000C4F86832FFF748FE002802DA3046BDE816
:10192000F08102202072B4F85E12D4F864024843B9
:10193000C4F86402D4F868024843C4F86802D4F8D2
:101940001412814206D094F8191200E002E020231C
:101950000522CBE74FF40070608141462846BDE880
:10196000F041FFF719BF70B505460E46D5E9864030
:1019700004F25E224368911C3046984740B13A23F6
:1019800002223146284600F050F84FF0FF3070BD7B
:10199000D4F86002401E010E2173010C6173010A2C
:1019A000A173E073002020746074B4F85E02010A31
:1019B000A174E07408206081002070BD2DE9FC4115
:1019C0000546D0F8184200200F4606462118401C54
:1019D00080B20E730C28F9D3D5F81C026A4601A90F
:1019E00043683846984748B13A2302223946284688
:1019F00000F01BF84FF0FF30BDE8FC810820E073D9
:101A00000198401E010E2174010C6174010AA17439
:101A1000E074022020756675BDF80000010AA1750A
:101A2000E0750C2060810020E6E7D0F8180290F8FD
:101A30005D1200EBC10181F83C2290F85D22190291
:101A400000EBC202C2F8401290F85D12491CC9B204
:101A500080F85D12042902D1002180F85D127047E0
:101A60002DE9F041D0F8184205461746207A8846FD
:101A700020B12846BDE8F041FFF7D4BE94F8180223
:101A80004FF0FF3600063CD4D5F81C028168404672
:101A9000884728B13A230AE02846FFF7C6FF1DE031
:101AA000D5F81C02C1684046884718B12723022296
:101AB0004146F1E7D7F80200414600BA20F0FF02A4
:101AC00078790243C4F86422B7F8070043BA28467D
:101AD000C4F86832FFF768FD002802DA3046BDE836
:101AE000F081B4F85E02D4F864124143C4F8641281
:101AF000D4F868124143C4F86812D4F8140288423A
:101B000004D0202394F819120522C5E70120207281
:101B10004002814200D301468BB204F10C02012144
:101B2000284600F081FB0020D9E74FF470300860B0
:101B30004FF4007010800020704700207047002094
:101B4000704700207047002070472DE9F041540293
:101B50004FF4007698460D46002707E021462846B8
:101B600001F024FBA419354407F101074745F5D3DB
:101B70000020BDE8F0812DE9F04154024FF40076D9
:101B800098460D46002707E02146284601F07AFBDB
:101B9000A419354407F101074745F5D30020BDE8F6
:101BA000F0817047FEF746BD70B52948016821F005
:101BB000070141F0010101600068264C206820F017
:101BC000F80040F080002060206840F001002060B4
:101BD0002068C0F340000028FAD0606820F47C1030
:101BE00040F420106060206840F080702060206821
:101BF000C0F340600028FAD0606820F0F000606018
:101C0000606820F4E06040F480606060606820F408
:101C100060506060606820F0030040F00200606087
:101C2000606800F00C000828FAD10B4D2846FFF739
:101C300037F94FF0E021086940F0040008612846B8
:101C4000FFF73CF9606840F48000606070BD000000
:101C50000020024000100240006CDC020D480168C8
:101C600041F00101016041680B4A11404160016887
:101C70000A4A11400160016821F480210160416835
:101C800021F4FE0141604FF41F0181600449C0034B
:101C900008607047001002400000FFF8FFFFF6FEEA
:101CA00008ED00E04FF4FA70FFF70EF92548FEF753
:101CB000B6FF254C2548231D90FAA0F5B5FA85F509
:101CC000AE000F251968B540A94390FAA0F5B5FA02
:101CD00085F50122AD00AA4090FAA0F5B5FA85F588
:101CE000AE0011430325B540A94390FAA0F5B5FA1B
:101CF00085F50222AD00AA4090FAA0F5B5FA85F567
:101D0000AE0004251143B54090FAA0F0B0FA80F07F
:101D100000228000A9438240114398141960606139
:101D20004FF47A70FFF7D0F8BFF34F8F084801687F
:101D3000084A01F4E06111430160BFF34F8F00BF17
:101D4000FDE70000D4050020000801401000100449
:101D50000CED00E00400FA0510B5D0F8142252682A
:101D60009047002010BD134610B50A46002100F030
:101D70005BFA002010BD134610B50A46002100F0A2
:101D8000E1FA002010BD10B50446802100F0BFFA32
:101D90002046BDE81040002100F0B9BA10B5052179
:101DA0000023C0F8F4111A46194600F03DFA00204D
:101DB00010BD10B502238261C0F8F431C261134630
:101DC0000A46002100F0BEFA002010BD10B5042123
:101DD0000023C0F8F4111A46194600F0B3FA0020A7
:101DE00010BD000010B50A46024903A000F0DCF85F
:101DF000004810BD340A00204D534320436F6E66E7
:101E00006967000012200880004870472400002005
:101E100010B50A46024903A000F0C6F8004810BDFC
:101E2000340A00204D534320496E74657266616325
:101E30006500000004200880004870472000002052
:101E400010B50A46024903A000F0AEF8004810BDE4
:101E5000340A002053544D6963726F656C65637476
:101E6000726F6E696373000010B50A46024903A0E1
:101E700000F09AF8004810BD340A002053544D3346
:101E800032204D6173732053746F72616765000077
:101E900010B51A2008800A480168001D0468001D5A
:101EA0000068081809D008220649FEF7F9FE05491E
:101EB000042210312046FEF7F3FE0248801E10BDBA
:101EC000E8F7FF1F3A000020F8B5044648880D46A1
:101ED000010A08294BD2DFE801F04A0409174A4AEF
:101EE0004048D4F81012207C0A6832E0207C022698
:101EF0000028D4F8140205D0C16A68468847014614
:101F0000467041E0816AF8E7C0B206282FD2DFE8C8
:101F100000F003080D12171CD4F81012207C4A6838
:101F200017E0D4F81012207C8A6812E0D4F810125E
:101F3000207CCA680DE0D4F81012207C0A6908E001
:101F4000D4F81012207C4A6903E0D4F81012207CE7
:101F50008A6969469047014616E0207C38B9D4F872
:101F60001402416B68468847F5E7207C20B129467A
:101F70002046FFF708FFF8BDD4F81402016B68464D
:101F80008847014607204870BDF800000028F2D0BD
:101F9000EA88002AEFD0824200D90246ADF800203C
:101FA0002046FFF706FFF8BD70B5002300281DD0BE
:101FB0000446002502E06D1CEDB2641C2678002E5C
:101FC000F9D1022404EB45041480CC545B1C032299
:101FD000CA5400245B1C06E0CA545B1CDAB28C5461
:101FE000521CD3B2401C0278002AF5D170BD01000A
:101FF0004FF0000004D0012901D0022901D00220B5
:1020000070470120704710B580B1D0F8143213B179
:102010000023C0F8143209B1C0F81012012180F871
:10202000FC11027000F0AEF8002010BD022010BDBF
:1020300010B5D0F82002FEF7DFFBBDE81040FFF737
:10204000D6BF10B5D0F82002FEF7B6FBBDE81040B1
:10205000FFF7CDBF2DE9F0411746044641B1D4F852
:10206000140242698AB394F8FC01032842D043E089
:10207000D4F8F411002504F11400022933D1D0E979
:1020800002639E4207D9F31A83609AB2394620460A
:10209000FFF771FE12E04068B0FBF3F103FB1101A2
:1020A000A1B9984212D3D4F8F81188420ED2002276
:1020B00011462046FFF75FFEC4F8F85100231A4688
:1020C0001946204600F0B0F80DE012E0D4F81402F2
:1020D000C16829B194F8FC01032801D12046884742
:1020E0002046FFF75BFE94F80002012804D184F833
:1020F000005201E0204690470020BDE8F08170B515
:102100001546044641B1D4F8140282693AB394F8F2
:10211000FC01032824D025E0D4F8F41104F58270E2
:1021200003291FD1D0E902218A420BD9531A8360B7
:102130000846834200D303469AB229462046FFF759
:1021400012FE0FE0D4F81402016929B194F8FC01E1
:10215000032801D1204688472046FFF737FE01E0DB
:1021600020469047002070BD10B5D0F82002FEF741
:1021700067FBBDE81040FFF73ABFD0F82002FEF73A
:1021800079BB000010B519490446C1F85C04C0F8D9
:10219000201217480860082048600220886000204C
:1021A0008861C86108620846FEF76CFC08B1FEF75A
:1021B000C0F80022D4F820021823114604F5087450
:1021C000FEF7D0FA5823002280212068FEF7CAFAD1
:1021D0009823002281212068FEF7C4FAD823002228
:1021E00001212068FEF7BEFA002010BDD4050020B2
:1021F000005C00400A06D0F8200201F07F0100EBED
:10220000411002D590F82A00704790F82A027047D2
:1022100010B51C461346D0F820022246FEF732FBCA
:10222000BDE81040FFF7E3BE10B5D0F82002FEF77E
:102230004BFBBDE81040FFF7DABE70B50022044644
:1022400040231146FFF7E4FF40252B460022802162
:102250002046C4F81051FFF7DBFF0120256284F807
:10226000FC01D4F8180228B1D4F81402217942688C
:1022700020469047002070BD90F8FD1180F8FC11B9
:102280000020704710B590F8FC11032904D1D0F854
:102290001412C96901B18847002010BD01740020E3
:1022A000704710B5D0F82002FEF785FCBDE810405D
:1022B000FFF79DBE70B5044600F50270054600F0BC
:1022C00012F90120C4F8F401B4F80E02C4F8F801C0
:1022D00094F8080210F01F010AD001290DD002293C
:1022E00010D000F08001204600F011F8002070BDF1
:1022F0002946204600F05DF9F8E72946204600F01F
:102300003FFAF3E72946204600F0CCF9EEE710B596
:10231000D0F82002FEF7EFFABDE81040FFF767BEE5
:1023200010B5D0F82002FEF761FCBDE81040FFF7C1
:102330005EBE90F8FC1180F8FD11042180F8FC11BC
:102340000020704710B5D0F82002FEF7FFFABDE874
:102350001040FFF74CBE10B5FEF761FE002010BD27
:1023600010B5FEF779FE002010BD10B5044601211E
:10237000FFF767FE81212046FFF763FE2046FEF748
:1023800088FED4F8180220B100F014FA0020C4F836
:102390001802002010BD00000A210180004870478B
:1023A000340100202021018000487047F400002003
:1023B0002021018000487047D400002020210180A6
:1023C000004870471401002070B50546007C0024C9
:1023D000B8B14023022201212846FFF719FF40230C
:1023E000022281212846FFF713FF4FF41B7000F0F3
:1023F000E3F9C5F8180270B12846FEF74FFE2046F3
:1024000070BD4FF400763346022201212846FFF7C3
:10241000FFFE3346E4E70124F1E709B1C0F81C12DE
:102420000020704770B50646D0F8185208780C4660
:1024300010F0600126D0202953D16178FE2902D006
:10244000FF2919D10EE06188B1B9E188012913D1C2
:10245000000611D5D6F81C02806980470122294662
:10246000286019E0618839B9E18829B9000603D4E8
:102470003046FEF734FE34E021463046FFF783FC59
:10248000022070BD607801280DD00A2802D00B28E8
:1024900027D105E00122291D3046FFF78AFC20E004
:1024A000A07868601DE021793046FFF75DFE217954
:1024B0003046FFF7C6FD20794FF400730006307CEC
:1024C00004D500B140230222812103E000B1402362
:1024D000022201213046FFF79BFE21793046FEF7AC
:1024E00089FD002070BD0A7802704A7842708A78AF
:1024F000CB7802EB032242800A794B7902EB03226C
:1025000082808A79C97902EB0121C1807047024635
:10251000002011B1C2F8141270470220704710B5A4
:10252000D0F8142202241AB11268904700B900248E
:10253000204610BD70B50E461A4D897804462970A4
:10254000012928D894F8FC01022802D0032822D1BE
:1025500005E099B10320616084F8FC0109E091B1C4
:10256000606888420AD0C1B22046FFF7F5FB29789F
:1025700061602046FFF7D3FF02280CD02046BDE85B
:102580007040FFF723BC022084F8FC012046616004
:10259000FFF7E2FBF2E731462046BDE87040FFF767
:1025A000F2BB00009800002010B5FFF7B9FE002034
:1025B00010BD2DE9F04100264B78012532460A2B4B
:1025C00043D2DFE803F03C584251420805422A2733
:1025D000FFF77AFC63E004468888C8B9C888B8B9B0
:1025E000887800F07F0794F8FC01032810D084F865
:1025F000FE7139462046FFF754FE2046FFF7E6FB02
:102600001FB1022084F8FC0149E084F8FC5146E047
:1026100020461AE0FFF78EFF41E0CB88012B14D152
:1026200090F8FC31022B02D0032B0ED104E0826023
:10263000012200F1080114E00122011D11E090F8CF
:10264000FC21022A04D0032A02D0FFF79CFB26E0DB
:10265000C560D0F8041209B10321C160022200F163
:102660000C01FFF7A6FB1AE004464888012816D1A2
:10267000C4F804520BE0044690F8FC01022801D093
:102680000328C5D14888012809D1C4F80422D4F808
:1026900014028268204690472046FFF797FB304699
:1026A000BDE8F08170B50D4604462878002609790A
:1026B000C0F34110012806D06878A0B301281FD0CC
:1026C00003283FD107E0D4F8140229468268204647
:1026D0009047002070BD94F8FC01022817D0032811
:1026E0002CD1688828B921B1802902D02046FFF773
:1026F0000EFED4F81402294682682046904713E063
:1027000094F8FC01022802D0032817D103E0C9B1D4
:1027100080291BD116E06888A0B9480604D020465D
:10272000FFF786FCE5E703E02046FFF74FFB09E0F3
:1027300094F8FC01022807D003280BD02946204634
:10274000FFF721FB304670BD4806FBD02046FFF75F
:10275000DEFDF7E7080601F07F0004EB001501D568
:10276000143501E005F582752046FFF743FD00B101
:1027700001202860022229462046FFF71AFBE1E7E4
:1027800070B5054690F8FC010C4603280DD1207960
:1027900001280AD8D5F81402826828469047E088B4
:1027A00030B92846FFF712FB02E02846FFF7EBFAA4
:1027B000002070BD7047000000487047640300208F
:1027C0002DE9F047CC780A7848F68F1334B1012C04
:1027D0006DD0022C08D0032C13D10BE030F822402E
:1027E0001C4044F400730AE030F822401C4020F8FA
:1027F000224006E030F822401C4044F4C06320F838
:1028000022300C7830F8245048F68F72154048F288
:1028100080031D43254320F824508D7A48F6BF7964
:1028200004274BF68F7A48F2C0044CF28006EDB3D1
:102830000D7830F825C048F280180CEA020C4CEAFA
:10284000080C20F825C0CD88B0F850C025F001054F
:1028500091F800800CEBC80C00EB4C0CCCF8005449
:102860000D89B0F850C025F0010591F8008007EB04
:10287000C807674400EB4707C7F800544D78002DA0
:102880000D7830F825704FEA47477DD0002F05DAE4
:1028900030F825701740374320F825700D7830F850
:1028A00025707F0608D530F8257001E024E01DE092
:1028B0001740274320F825700C7830F82450154035
:1028C000354320F824500C7830F8242002EA09021D
:1028D0001A4320F824200A7830F8221001EA0A016D
:1028E000194320F822100020BDE8F08730F822407C
:1028F0001C4044F4806382E74D78F5B18D88B0F8D0
:10290000506025F001050F7806EBC70600EB460680
:10291000C6F800540D7830F82560760605D530F8F5
:1029200025601640264320F825600A7830F82210EA
:1029300001EA090181F02001D2E78C88B0F85050FB
:1029400024F0010491F800C007EBCC073D4400EBF4
:102950004505C5F80044B0F850400D78062707EB50
:10296000C5052C4400EB44070C694FF6FF7C07F5C6
:1029700080673E2C0CD9C4F34F15E40601D16D1EBF
:10298000ADB20CEA852400E01EE044F4004407E008
:10299000C4F34F05E40701D06D1CADB20CEA8524E9
:1029A0003C600C7830F824506D0405D530F8245084
:1029B0001540354320F824500A7830F8221001EAF7
:1029C0000A0181F440518BE7002F05DA30F82570B9
:1029D0001740374320F825700D7830F825607606CB
:1029E00005D530F825601640264320F825600E787E
:1029F00030F826501540254320F826500C7830F842
:102A0000242002EA0A0282F440521A4320F82420C9
:102A10000A7830F8221001EA090161E700207047C6
:102A20002DE9F04391F80A8091F801C00A7848F640
:102A3000BF774BF68F7948F2800348F2C0054CF21D
:102A4000800648F68F74B8F1000F2ED0BCF1000F4D
:102A500030F822C04FEA4C4C4ED0BCF1000F07DAE0
:102A600030F822C00CEA040C4CEA060C20F822C014
:102A70000A7830F822C05FEA4C6C07D530F822C0E3
:102A80000CEA040C4CEA050C20F822C00A7830F855
:102A900022502540354320F822500C7830F824206D
:102AA0003A401A4320F824201BE0BCF1000F0ED05E
:102AB00030F82260760605D530F8226026402E4395
:102AC00020F822600A7830F8221039400EE030F801
:102AD00022506D0405D530F822502540354320F8AA
:102AE00022500A7830F8221001EA0901194320F82F
:102AF00022100020BDE8F083BCF1000F07DA30F8A7
:102B000022C00CEA040C4CEA060C20F822C00A7819
:102B100030F82260760605D530F8226026402E4334
:102B200020F822600E7830F8262022402A4320F830
:102B300026200C7830F8242002EA09021A4320F8F3
:102B40002420BFE7002070470020704700B5012116
:102B5000A0F840100021A0F84010A0F84410A0F800
:102B6000501000F03AF9002000BD30F8401F21F469
:102B70003D410180002070470020704730B54D78FE
:102B80000A78002D48F68F7430F8225048F28003FE
:102B900012D06D0607D530F82250254048F2C00407
:102BA000254320F822500A7830F8221048F6BF74E6
:102BB000214081F0300111E06D0407D530F822503A
:102BC00025404CF28004254320F822500A7830F842
:102BD00022104BF68F74214081F44051194320F8A4
:102BE0002210002030BD10B50A7848F2800352B19F
:102BF0004978002930F8221010D048F6BF742140DF
:102C000081F010010FE001884BF6BF72114081F492
:102C1000805181F010011943018007E04BF68F7459
:102C2000214081F48051194320F82210002010BD6A
:102C30002DE9F0410D460646896995F801C000234B
:102C4000AA7A022728690C4648F28008BCF1010FD5
:102C500005D0814252D90446081AA8614FE081424A
:102C600003D90446081AA86100E0AB617AB128785C
:102C700036F820104906B6F8501007EBC00008449B
:102C800006EB4000C0F8004412D52A8911E0A3B237
:102C9000AA883046696900F0D5F8B6F8500029785E
:102CA00007EBC101084406EB4000C0F800441CE0FB
:102CB000EA88A3B23046696900F0C4F8687848F63B
:102CC0008F7110B1012807D00FE0287836F8202046
:102CD0000A4048F2C00105E0287836F820200A4072
:102CE0004CF280010A4326F82020297836F821008A
:102CF00048F6BF72104080F0300067E0AB610623F9
:102D00004FF6FF701AB1BCF1000F1BD056E0B6F8B9
:102D100050102A783E2C03EBC202114406EB41020C
:102D200002F5806239D9C4F34F11E30632D000BFF7
:102D300000EA812040F4004002E000BF00EA812068
:102D400010603BE0B6F850102A783E2C07EBC20228
:102D5000114406EB410202F580620BD9C4F34F1116
:102D60005FEAC46C01D1491E89B200EA812141F4B5
:102D7000004108E0C4F34F015FEAC47C01D0491C64
:102D800089B200EA8121116069780029BFD0012948
:102D90000AD013E0491E89B2CAE7C4F34F01E30722
:102DA000CCD0491C89B2C9E7B6F85000297807EBA6
:102DB000C101084406EB4000C0F80044297836F809
:102DC00021004BF68F72104080F4405040EA08001A
:102DD00026F821000020BDE8F08130F8401F41F4C2
:102DE0003F4101800020704700207047002070475D
:102DF0000148FDF7C0BD0000D4050020B0F8440034
:102E0000704700005B1C00EB42005B0800F580602F
:102E100006D000BF30F8042B21F8022B5B1EF9D13D
:102E200070470020704711B98021A0F84C10002095
:102E30007047012120F8401F00218180032101807B
:102E40000020704710B55B1C00EB42005B0800F5EA
:102E5000806009D011F8012B5B1E11F8014B42EA8A
:102E6000042220F8042BF5D110BDFEE702E008C8CB
:102E7000121F08C1002AFAD170477047002001E0F4
:102E800001C1121F002AFBD17047000010B5044693
:102E90004FF40071FDF76FF919A045F29C0201682B
:102EA000216041686160008920812020A072082093
:102EB000E072002121736173E18122826282A1822A
:102EC000E1822283618311A0E161036844F8203F1D
:102ED00043686360008920815420A0722120E07241
:102EE000182020736173E18122826282A182E182D3
:102EF0002283052060830848FDF748F9E06110BD92
:102F0000424F4F544C4F414445522000524541449A
:102F10004D452020545854007036000810B51B4A07
:102F20001A4C0A44920864426FF07043A14210D1D7
:102F3000D91F01604FF0FF31C0E90113C3600521C3
:102F4000036153185B1C40F82130491C8029F8D3D9
:102F500010BD0F4CA1424FF000010FD15418641C5A
:102F600040F82140491C0429F8D3052100220361BF
:102F700040F82120491C8029FAD310BD53185B1C4E
:102F800040F82130491C8029F8D310BD0008DDFF2E
:102F9000001823002DE9F04F87B014460D46064671
:102FA0000127FDF72DFB00F0EFF950B1102C03D0F5
:102FB000002007B0BDE8F08F32462146284600F0D9
:102FC000D9F83D48002186420CD1029005914FF07E
:102FD00070000091039005A96846FDF773FA10B1DF
:102FE000002764E063D3354906EB040088425ED8CD
:102FF00016F003024FF0FF0A0DF1080B3CD0C2F1AE
:10300000040026F00309A04200DD20468DF808A048
:103010008DF809A08DF80AA08DF80BA000215B4661
:103020000BE000BF01EB0208641E491C15F801CB40
:1030300003F808C0E4B2C9B2761C8142F2D300237F
:1030400049460220029AFDF79BFA15E028788DF890
:10305000080068788DF80900A8788DF80A00E878EB
:103060008DF80B00002331460220029AFDF788FA02
:10307000241F2D1DE4B2361D042CE7D2BCB18DF8FF
:1030800008A08DF809A08DF80AA08DF80BA00020EB
:10309000594604E015F8012B0A54401CC0B2A04266
:1030A000F8D3002331460220029AFDF769FAFDF7B2
:1030B0005DFA38467DE70000004000080000020885
:1030C00010B50649064800F01DF806490968814216
:1030D00001D1012010BD002010BD0000FCBF010087
:1030E00000400008FCFF01080448006804498842C9
:1030F00001D101207047002070470000FC4F0020E4
:103100007856341278B5184B5A6942F040025A6129
:103110005A69012402F040020092144A94608C081B
:1031200003E020C895FAA5F51560641EF9D212686F
:1031300001F0030492FAA2F20D4D0CE010F8011B0D
:103140004A400021D60702D085EA520200E0520828
:10315000491C0829F6D3641EF0D25969D04321F0E6
:103160004001596100BA78BD0010024000300240B1
:103170002083B8ED7FB50C4605461146684600F041
:10318000ABF869460448FDF76AF82246294602482A
:10319000FDF741F87FBD0000330D002001490248D2
:1031A000FDF761B85B370008330D002070B5CA0524
:1031B00001D0002070BD5524AA25E1B1B1F5406FC2
:1031C00019D04FF4007291421FD0B1F5606F1CD03E
:1031D000B1F5806F2AD0B1F5805F27D0224BCC1893
:1031E0004FF408539C4203D3204C0C449C4226D2FB
:1031F000FFF794FE36E006465A221D49FCF7A2FF6F
:103200004FF4D27106F15A0012E006461146FCF75F
:10321000B2FF184830601848C6F8E4011748C6F8ED
:10322000E80140F60500C6F8EC0103E00646114649
:10323000FCF7A1FF86F8FE4186F8FF5112E0B1F5D8
:10324000800F09D00E4B0B44934208D208495D22EF
:103250005D39FCF777FF05E0FFF718FE02E0114645
:10326000FCF789FF012070BD0008DDFF0084CEFF60
:10327000CD3600085252614172724161BE9803001E
:1032800000FABFFF70B50546C80501D0002070BD2B
:103290004FF4800081421AD34613814210D100249A
:1032A0002A19107A482807D1507A452804D1907AF3
:1032B000582801D100F046F92034B442F0D306E09A
:1032C000044800F04BF93146284600F069F8012027
:1032D00070BD0000952F00082DE9FF410A46294ED8
:1032E00004460021D5B2C2F3072CC2F30747705C35
:1032F00073186840605493F801E060188EEA0C0E71
:1033000080F801E093F802E0091D8EEA070E80F8CC
:1033100002E0DB78C9B283EA1263C3701029E6D3F6
:10332000102221466846FCF70DFF6320DDE90012FC
:1033300081EA9201029A029BD20882EAD31251409A
:10334000039A019B81EA5211009A520842EAC37221
:1033500000925A08029B42EAC37201925A08039BE8
:1033600042EAC37202925A0842EAC171401E0391B6
:10337000C0B2DBD2102269462046FCF7E3FEBDE86E
:10338000FF8100004B37000801488078704700003B
:10339000740000200148C0787047000074000020CD
:1033A0002DE9F84F00240F4680464FF00A0BDFF856
:1033B0008C914FF0010A2646614DB9E018F80400DF
:1033C000002876D0297959B14A1E0A2A23D8A0F1BB
:1033D0003002092A0CD9113A052A04D80A3207E02A
:1033E0002E726E7017E0A0F16102192A6BD80A32B2
:1033F000D2B20092782A66D06A78009BAAB195F87A
:1034000007C043EA0C1395F808C0634485F80830F8
:1034100082F001026A700C2955D2DFE801F0081928
:10342000191F1F1F1F272B364B4DEB71F0E70D287F
:103430007DD00A287BD03A2845D16E71AE716E815D
:10344000FF213E48FCF797FEEE8185F804A06EE070
:103450006A79009840EA0210687104E06A8900986D
:1034600040EA02106881491C297160E0009850BB55
:10347000082008E00098052801D90E2823D1A8715A
:10348000687998B10920287151E0E989009BC1F35E
:103490004700491C19F800C043EA0C1309F8003032
:1034A00088B2E8816979B1EB500F40D885F804B053
:1034B0003DE040E00B20E6E7E9896879B1EB400F99
:1034C00001D1287A10B10020BDE8F88FA879022830
:1034D00007D004280CD088B10E2822D0012823D090
:1034E00024E0B9F8000040BAA88185F800A01DE0EA
:1034F000B9F8000040BAA8812E7017E02B69ABB173
:103500002878AA890028688902D000EB021001E01F
:1035100040EA0240C1F34702084998470028D3D047
:1035200004E085F802A001E085F803A02E71641C78
:10353000BC42FFF443AF0120C6E70000340C00207A
:1035400074000020044800210171418181810170D3
:103550008170C1707047000074000020014908614B
:1035600070470000740000200A48016809B1491C36
:103570000BD1416809B1491C07D1816809B1491CC7
:1035800003D1C06818B1401C01D001207047002051
:103590007047000000400008034901208968884303
:1035A00000D00120704700000008014086B0FDF700
:1035B00049F8FEF7F9FA14216846FCF7DCFD2648C5
:1035C000816941F0040181618069694600F004006D
:1035D000059040F201100090082001900120049015
:1035E0001E48FDF7E5FBFFF7BFFF40B1FFF7D4FF33
:1035F00028B9FFF765FD10B1FFF776FD68B1FFF759
:10360000CDFDFDF795FD00BFFFF7C4FE0028FBD000
:10361000134900200860FEF745FB124C6068124D0C
:103620002860FCF73FFF4FF0E0214FF0FF30C1F87A
:103630008001C1F88401C1F88801C1F88002C1F895
:103640008402C1F8880209480460206880F3088871
:1036500028688047FEE70000001002400008014093
:10366000FC4F0020004000080000002008ED00E0B2
:1036700053544D333220626F6F746C6F61646572A6
:103680000A506C65617365206472616720616E64C5
:103690002064726F702074686520696E74656C2098
:1036A0006865782066696C6520746F20746869733A
:1036B00020647269766520746F207570646174652A
:1036C0002074686520617070636F646500EBFE9024
:1036D0004D53444F53352E300002017C110200003F
:1036E0000000F800003F00FF003F000000C1C003E1
:1036F0000042070000000000000200000001000678
:103700000000000000000000000000000080002910
:10371000B04990024E4F204E414D4520202020467A
:1037200041543332202020008002021F0000005349
:10373000544D202020202050726F64756374202027
:1037400020202020202020302E3031845EF42336AB
:1037500083408E832274CFF1F007CC2976DEF02AE5
:10376000F44ED7BE871EA9DAB25B243ACA6638A7E0
:10377000F64445B12C5E86CB73BA2F637C777BF21F
:103780006B6FC53001672BFED7AB76CA82C97DFA55
:103790005947F0ADD4A2AF9CA472C0B7FD932636B2
:1037A0003FF7CC34A5E5F171D8311504C723C31810
:1037B00096059A071280E2EB27B27509832C1A1B33
:1037C0006E5AA0523BD6B329E32F8453D100ED208B
:1037D000FCB15B6ACBBE394A4C58CFD0EFAAFB4351
:1037E0004D338545F9027F503C9FA851A3408F92ED
:1037F0009D38F5BCB6DA2110FFF3D2CD0C13EC5F87
:10380000974417C4A77E3D645D197360814FDC2225
:103810002A908846EEB814DE5E0BDBE0323A0A49A5
:1038200006245CC2D3AC629195E479E7C8376D8D0C
:10383000D54EA96C56F4EA657AAE08BA78252E1CE6
:10384000A6B4C6E8DD741F4BBD8B8A703EB56648D2
:1038500003F60E613557B986C11D9EE1F8981169CE
:10386000D98E949B1E87E9CE5528DF8CA1890DBF88
:10387000E6426841992D0FB054BB168D0102040831
:10388000102040801B3600000003008083000000F1
:103890000000000000000600000000000000000022
:1038A000C03800080000002040010000C0010008EE
:1038B0006839000840010020181100007C2E000823
:1038C0004113051E1B0835041A41041A69041A9194
:1038D0000413E51D1B081108170403090412013223
:1038E00002164083042A57260201020301031A1A12
:1038F00003133F1B1B082B041A43041A47041A4BDB
:10390000041A77041A3B04132737021408195311B9
:10391000821044A24A0413C9231B086B048B25247C
:10392000341A57101A6104C11AB1101AA5041ABD2D
:10393000041A9904140902201F010104C032094726
:10394000180A020806500507058102C42C07050164
:10395000070914202240292019070B1C0907201BE6
:0C3960000A0645212A40B40000000000C7
:04000005080000ED02
:00000001FF
